{
  "transactions": [
    {
      "hash": "0x7805f69ee6806344f1a8ec186f4ed018a538cdb8353c78fe051d66fecdace48a",
      "transactionType": "CALL",
      "contractName": "RiteOfMolochFactory",
      "contractAddress": "0xd13A6B033F98994B1897CeFCCae673D3d1BF0892",
      "function": "createCohort((address,address,address,uint256,uint256,uint256,string,string,string),uint256):(address)",
      "arguments": [
        "(0x69830F52d75Ed8d1431c17AECFe09F083dDc7761, 0x1Cfb862056ecF2677615F9eB3420B04fb4911C01, 0x69830F52d75Ed8d1431c17AECFe09F083dDc7761, 10, 10, 10, RiteOfMolochSBT, SBTM, )",
        "1"
      ],
      "rpc": "https://eth-goerli.g.alchemy.com/v2/49Z_NgeD3j-WxnHQzifUkHA_IZUCKyrZ",
      "transaction": {
        "type": "0x02",
        "from": "0x1a4b691738c9c8db8f2edf0b9207f6acb24adf07",
        "to": "0xd13a6b033f98994b1897cefccae673d3d1bf0892",
        "gas": "0x91d9d",
        "value": "0x0",
        "data": "0x05e846110000000000000000000000000000000000000000000000000000000000000040000000000000000000000000000000000000000000000000000000000000000100000000000000000000000069830f52d75ed8d1431c17aecfe09f083ddc77610000000000000000000000001cfb862056ecf2677615f9eb3420b04fb4911c0100000000000000000000000069830f52d75ed8d1431c17aecfe09f083ddc7761000000000000000000000000000000000000000000000000000000000000000a000000000000000000000000000000000000000000000000000000000000000a000000000000000000000000000000000000000000000000000000000000000a0000000000000000000000000000000000000000000000000000000000000120000000000000000000000000000000000000000000000000000000000000016000000000000000000000000000000000000000000000000000000000000001a0000000000000000000000000000000000000000000000000000000000000000f526974654f664d6f6c6f6368534254000000000000000000000000000000000000000000000000000000000000000000000000000000000000000000000000045342544d000000000000000000000000000000000000000000000000000000000000000000000000000000000000000000000000000000000000000000000000",
        "nonce": "0x63",
        "accessList": []
      },
      "additionalContracts": [
        {
          "transactionType": "CREATE",
          "address": "0xb6C433e3BeFb469C10Cb8A80772333b2AF027978",
          "initCode": "3d602d80600a3d3981f3363d3d373d3d3d363d736b1a918dd2ed8fa3442405e122589d60d2a4f4705af43d82803e903d91602b57fd5bf3"
        }
      ]
    }
  ],
  "receipts": [],
  "libraries": [],
  "pending": [
    "0x7805f69ee6806344f1a8ec186f4ed018a538cdb8353c78fe051d66fecdace48a"
  ],
  "path": "/Users/hunterking/Desktop/ROM/rom-curr/RiteOfMoloch-v1.0/broadcast/CloneROM.s.sol/5/run-latest.json",
  "returns": {},
  "timestamp": 1671541136,
  "chain": 5,
  "multi": false,
  "commit": "b82f746"
}