{
  "transactions": [
    {
      "hash": "0x591c65226c3cc46e74e0317e9e41fcb670e2eb4ba83d83755f999f9d6184a618",
      "transactionType": "CALL",
      "contractName": "RiteOfMolochFactory",
      "contractAddress": "0x00b52e6d26026C853f89dC895F0ae2b0Ba7FECaA",
      "function": "createCohort((address,address,address,address,address,uint256,uint256,uint256,uint256,uint256,uint256,string,string,string,string),uint256):(address)",
      "arguments": [
        "(0x6053dE194226843E4FD99A82C1386B4C76E19E34, 0xA49dF10dD5B84257dE634F4350218f615471Fc69, 0x6053dE194226843E4FD99A82C1386B4C76E19E34, 0xa25256073cB38b8CAF83b208949E7f746f3BEBDc, 0x0000000000000000000000000000000000000000, 5, 864000, 10, 2500000000000000000000, 864000, 0, SeasonV, RiteOfMolochSBT, SBTMoloch, )",
        "1"
      ],
      "rpc": "https://eth-goerli.g.alchemy.com/v2/49Z_NgeD3j-WxnHQzifUkHA_IZUCKyrZ",
      "transaction": {
        "type": "0x02",
        "from": "0x1a4b691738c9c8db8f2edf0b9207f6acb24adf07",
        "to": "0x00b52e6d26026c853f89dc895f0ae2b0ba7fecaa",
        "gas": "0x1abd8d",
        "value": "0x0",
        "data": "0x5984601b000000000000000000000000000000000000000000000000000000000000004000000000000000000000000000000000000000000000000000000000000000010000000000000000000000006053de194226843e4fd99a82c1386b4c76e19e34000000000000000000000000a49df10dd5b84257de634f4350218f615471fc690000000000000000000000006053de194226843e4fd99a82c1386b4c76e19e34000000000000000000000000a25256073cb38b8caf83b208949e7f746f3bebdc0000000000000000000000000000000000000000000000000000000000000000000000000000000000000000000000000000000000000000000000000000000500000000000000000000000000000000000000000000000000000000000d2f00000000000000000000000000000000000000000000000000000000000000000a0000000000000000000000000000000000000000000000878678326eac90000000000000000000000000000000000000000000000000000000000000000d2f00000000000000000000000000000000000000000000000000000000000000000000000000000000000000000000000000000000000000000000000000000001e00000000000000000000000000000000000000000000000000000000000000220000000000000000000000000000000000000000000000000000000000000026000000000000000000000000000000000000000000000000000000000000002a00000000000000000000000000000000000000000000000000000000000000007536561736f6e5600000000000000000000000000000000000000000000000000000000000000000000000000000000000000000000000000000000000000000f526974654f664d6f6c6f6368534254000000000000000000000000000000000000000000000000000000000000000000000000000000000000000000000000095342544d6f6c6f636800000000000000000000000000000000000000000000000000000000000000000000000000000000000000000000000000000000000000",
        "nonce": "0x178",
        "accessList": []
      },
      "additionalContracts": [
        {
          "transactionType": "CREATE",
          "address": "0x4D81fDbD5ef49B6b951ddA724A69a973F7d9a5EC",
          "initCode": "3d602d80600a3d3981f3363d3d373d3d3d363d7336c471df23d4fa73c6dabc4f47612533260e65685af43d82803e903d91602b57fd5bf3"
        }
      ]
    }
  ],
  "receipts": [
    {
      "transactionHash": "0x591c65226c3cc46e74e0317e9e41fcb670e2eb4ba83d83755f999f9d6184a618",
      "transactionIndex": "0x9",
      "blockHash": "0x43073ab7c6526de06892740a2b98ab8b53fe76115f0c5dde1aa65547bb3a71fe",
      "blockNumber": "0x7fe5f8",
      "from": "0x1A4B691738C9c8Db8f2EDf0b9207f6acb24ADF07",
      "to": "0x00b52e6d26026C853f89dC895F0ae2b0Ba7FECaA",
      "cumulativeGasUsed": "0x3300c7",
      "gasUsed": "0x135c0f",
      "contractAddress": null,
      "logs": [
        {
          "address": "0x4D81fDbD5ef49B6b951ddA724A69a973F7d9a5EC",
          "topics": [
            "0xb4b5fad09421a48c68e8513475c3adbf47ed48a5eefe543d4fec52c82db47469"
          ],
          "data": "0x0000000000000000000000000000000000000000000000878678326eac900000",
          "blockHash": "0x43073ab7c6526de06892740a2b98ab8b53fe76115f0c5dde1aa65547bb3a71fe",
          "blockNumber": "0x7fe5f8",
          "transactionHash": "0x591c65226c3cc46e74e0317e9e41fcb670e2eb4ba83d83755f999f9d6184a618",
          "transactionIndex": "0x9",
          "logIndex": "0x24",
          "removed": false
        },
        {
          "address": "0x4D81fDbD5ef49B6b951ddA724A69a973F7d9a5EC",
          "topics": [
            "0x856717cb327b027e506a205b6a989525427e169d7b6acb09ad84d849dea2b93f"
          ],
          "data": "0x00000000000000000000000000000000000000000000000000000000000d2f00",
          "blockHash": "0x43073ab7c6526de06892740a2b98ab8b53fe76115f0c5dde1aa65547bb3a71fe",
          "blockNumber": "0x7fe5f8",
          "transactionHash": "0x591c65226c3cc46e74e0317e9e41fcb670e2eb4ba83d83755f999f9d6184a618",
          "transactionIndex": "0x9",
          "logIndex": "0x25",
          "removed": false
        },
        {
          "address": "0x4D81fDbD5ef49B6b951ddA724A69a973F7d9a5EC",
          "topics": [
            "0xe2c5fed45442eae2ee9c94b63f1e24155d9bfe92ecd80e48c35ebf2927675737",
            "0x0000000000000000000000000000000000000000000000000000000000000000",
            "0x000000000000000000000000cf912a0193593f5cd55d81ff611c26c3ed63f924"
          ],
          "data": "0x",
          "blockHash": "0x43073ab7c6526de06892740a2b98ab8b53fe76115f0c5dde1aa65547bb3a71fe",
          "blockNumber": "0x7fe5f8",
          "transactionHash": "0x591c65226c3cc46e74e0317e9e41fcb670e2eb4ba83d83755f999f9d6184a618",
          "transactionIndex": "0x9",
          "logIndex": "0x26",
          "removed": false
        },
        {
          "address": "0xcf912a0193593f5cD55D81FF611c26c3ED63f924",
          "topics": [
            "0x4d38ad12136291322128027bb8c3af7db2261be395032c1d26dd0ad20cf29415"
          ],
          "data": "0x0000003b0000000000000000000000000000000000000000000000000000000000000000000000000000000000000000000000000000000000000000000000e000000000000000000000000000000000000000000000000000000000000000010000000000000000000000000000000000000000000000000000000000000000000000000000000000000000000000000000000000000000000000000000000000000000000000000000000000000000000000000000000000000000000000000000000000000000000000000000000000000000000000000000000000000120000000000000000000000000000000000000000000000000000000000000000a524f4d20546f70486174000000000000000000000000000000000000000000000000000000000000000000000000000000000000000000000000000000000000",
          "blockHash": "0x43073ab7c6526de06892740a2b98ab8b53fe76115f0c5dde1aa65547bb3a71fe",
          "blockNumber": "0x7fe5f8",
          "transactionHash": "0x591c65226c3cc46e74e0317e9e41fcb670e2eb4ba83d83755f999f9d6184a618",
          "transactionIndex": "0x9",
          "logIndex": "0x27",
          "removed": false
        },
        {
          "address": "0xcf912a0193593f5cD55D81FF611c26c3ED63f924",
          "topics": [
            "0xc3d58168c5ae7397731d063d5bbf3d657854427343f4c083240f7aacaa2d0f62",
            "0x0000000000000000000000004d81fdbd5ef49b6b951dda724a69a973f7d9a5ec",
            "0x0000000000000000000000000000000000000000000000000000000000000000",
            "0x0000000000000000000000004d81fdbd5ef49b6b951dda724a69a973f7d9a5ec"
          ],
          "data": "0x0000003b000000000000000000000000000000000000000000000000000000000000000000000000000000000000000000000000000000000000000000000001",
          "blockHash": "0x43073ab7c6526de06892740a2b98ab8b53fe76115f0c5dde1aa65547bb3a71fe",
          "blockNumber": "0x7fe5f8",
          "transactionHash": "0x591c65226c3cc46e74e0317e9e41fcb670e2eb4ba83d83755f999f9d6184a618",
          "transactionIndex": "0x9",
          "logIndex": "0x28",
          "removed": false
        },
        {
          "address": "0xcf912a0193593f5cD55D81FF611c26c3ED63f924",
          "topics": [
            "0x4d38ad12136291322128027bb8c3af7db2261be395032c1d26dd0ad20cf29415"
          ],
          "data": "0x0000003b0100000000000000000000000000000000000000000000000000000000000000000000000000000000000000000000000000000000000000000000e000000000000000000000000000000000000000000000000000000000000000010000000000000000000000006053de194226843e4fd99a82c1386b4c76e19e340000000000000000000000006053de194226843e4fd99a82c1386b4c76e19e3400000000000000000000000000000000000000000000000000000000000000010000000000000000000000000000000000000000000000000000000000000120000000000000000000000000000000000000000000000000000000000000000f524f4d2053757065722d41646d696e00000000000000000000000000000000000000000000000000000000000000000000000000000000000000000000000000",
          "blockHash": "0x43073ab7c6526de06892740a2b98ab8b53fe76115f0c5dde1aa65547bb3a71fe",
          "blockNumber": "0x7fe5f8",
          "transactionHash": "0x591c65226c3cc46e74e0317e9e41fcb670e2eb4ba83d83755f999f9d6184a618",
          "transactionIndex": "0x9",
          "logIndex": "0x29",
          "removed": false
        },
        {
          "address": "0xcf912a0193593f5cD55D81FF611c26c3ED63f924",
          "topics": [
            "0x4d38ad12136291322128027bb8c3af7db2261be395032c1d26dd0ad20cf29415"
          ],
          "data": "0x0000003b0101000000000000000000000000000000000000000000000000000000000000000000000000000000000000000000000000000000000000000000e000000000000000000000000000000000000000000000000000000000000000030000000000000000000000001a4b691738c9c8db8f2edf0b9207f6acb24adf070000000000000000000000001a4b691738c9c8db8f2edf0b9207f6acb24adf07000000000000000000000000000000000000000000000000000000000000000100000000000000000000000000000000000000000000000000000000000001200000000000000000000000000000000000000000000000000000000000000009524f4d2041646d696e00000000000000000000000000000000000000000000000000000000000000000000000000000000000000000000000000000000000000",
          "blockHash": "0x43073ab7c6526de06892740a2b98ab8b53fe76115f0c5dde1aa65547bb3a71fe",
          "blockNumber": "0x7fe5f8",
          "transactionHash": "0x591c65226c3cc46e74e0317e9e41fcb670e2eb4ba83d83755f999f9d6184a618",
          "transactionIndex": "0x9",
          "logIndex": "0x2a",
          "removed": false
        },
        {
          "address": "0xcf912a0193593f5cD55D81FF611c26c3ED63f924",
          "topics": [
            "0xc3d58168c5ae7397731d063d5bbf3d657854427343f4c083240f7aacaa2d0f62",
            "0x0000000000000000000000004d81fdbd5ef49b6b951dda724a69a973f7d9a5ec",
            "0x0000000000000000000000000000000000000000000000000000000000000000",
            "0x0000000000000000000000001a4b691738c9c8db8f2edf0b9207f6acb24adf07"
          ],
          "data": "0x0000003b010000000000000000000000000000000000000000000000000000000000000000000000000000000000000000000000000000000000000000000001",
          "blockHash": "0x43073ab7c6526de06892740a2b98ab8b53fe76115f0c5dde1aa65547bb3a71fe",
          "blockNumber": "0x7fe5f8",
          "transactionHash": "0x591c65226c3cc46e74e0317e9e41fcb670e2eb4ba83d83755f999f9d6184a618",
          "transactionIndex": "0x9",
          "logIndex": "0x2b",
          "removed": false
        },
        {
          "address": "0xcf912a0193593f5cD55D81FF611c26c3ED63f924",
          "topics": [
            "0xc3d58168c5ae7397731d063d5bbf3d657854427343f4c083240f7aacaa2d0f62",
            "0x0000000000000000000000004d81fdbd5ef49b6b951dda724a69a973f7d9a5ec",
            "0x0000000000000000000000000000000000000000000000000000000000000000",
            "0x0000000000000000000000001a4b691738c9c8db8f2edf0b9207f6acb24adf07"
          ],
          "data": "0x0000003b010100000000000000000000000000000000000000000000000000000000000000000000000000000000000000000000000000000000000000000001",
          "blockHash": "0x43073ab7c6526de06892740a2b98ab8b53fe76115f0c5dde1aa65547bb3a71fe",
          "blockNumber": "0x7fe5f8",
          "transactionHash": "0x591c65226c3cc46e74e0317e9e41fcb670e2eb4ba83d83755f999f9d6184a618",
          "transactionIndex": "0x9",
          "logIndex": "0x2c",
          "removed": false
        },
        {
          "address": "0xcf912a0193593f5cD55D81FF611c26c3ED63f924",
          "topics": [
            "0xc3d58168c5ae7397731d063d5bbf3d657854427343f4c083240f7aacaa2d0f62",
            "0x0000000000000000000000004d81fdbd5ef49b6b951dda724a69a973f7d9a5ec",
            "0x0000000000000000000000000000000000000000000000000000000000000000",
            "0x000000000000000000000000a25256073cb38b8caf83b208949e7f746f3bebdc"
          ],
          "data": "0x0000003b010100000000000000000000000000000000000000000000000000000000000000000000000000000000000000000000000000000000000000000001",
          "blockHash": "0x43073ab7c6526de06892740a2b98ab8b53fe76115f0c5dde1aa65547bb3a71fe",
          "blockNumber": "0x7fe5f8",
          "transactionHash": "0x591c65226c3cc46e74e0317e9e41fcb670e2eb4ba83d83755f999f9d6184a618",
          "transactionIndex": "0x9",
          "logIndex": "0x2d",
          "removed": false
        },
        {
          "address": "0x4D81fDbD5ef49B6b951ddA724A69a973F7d9a5EC",
          "topics": [
            "0x7c2a2c4bb5a44dafa473fc49e557303dba6db62123713789deefe8ccb3846549",
            "0xd980155b32cf66e6af51e0972d64b9d5efe0e6f237dfaa4bdc83f990dd79e9c8",
            "0x0000003b01000000000000000000000000000000000000000000000000000000",
            "0x00000000000000000000000000b52e6d26026c853f89dc895f0ae2b0ba7fecaa"
          ],
          "data": "0x",
          "blockHash": "0x43073ab7c6526de06892740a2b98ab8b53fe76115f0c5dde1aa65547bb3a71fe",
          "blockNumber": "0x7fe5f8",
          "transactionHash": "0x591c65226c3cc46e74e0317e9e41fcb670e2eb4ba83d83755f999f9d6184a618",
          "transactionIndex": "0x9",
          "logIndex": "0x2e",
          "removed": false
        },
        {
          "address": "0x4D81fDbD5ef49B6b951ddA724A69a973F7d9a5EC",
          "topics": [
            "0x7c2a2c4bb5a44dafa473fc49e557303dba6db62123713789deefe8ccb3846549",
            "0xdf8b4c520ffe197c5343c6f5aec59570151ef9a492f2c624fd45ddde6135ec42",
            "0x0000003b01010000000000000000000000000000000000000000000000000000",
            "0x00000000000000000000000000b52e6d26026c853f89dc895f0ae2b0ba7fecaa"
          ],
          "data": "0x",
          "blockHash": "0x43073ab7c6526de06892740a2b98ab8b53fe76115f0c5dde1aa65547bb3a71fe",
          "blockNumber": "0x7fe5f8",
          "transactionHash": "0x591c65226c3cc46e74e0317e9e41fcb670e2eb4ba83d83755f999f9d6184a618",
          "transactionIndex": "0x9",
          "logIndex": "0x2f",
          "removed": false
        },
        {
          "address": "0xcf912a0193593f5cD55D81FF611c26c3ED63f924",
          "topics": [
            "0xc3d58168c5ae7397731d063d5bbf3d657854427343f4c083240f7aacaa2d0f62",
            "0x0000000000000000000000004d81fdbd5ef49b6b951dda724a69a973f7d9a5ec",
            "0x0000000000000000000000004d81fdbd5ef49b6b951dda724a69a973f7d9a5ec",
            "0x0000000000000000000000006053de194226843e4fd99a82c1386b4c76e19e34"
          ],
          "data": "0x0000003b000000000000000000000000000000000000000000000000000000000000000000000000000000000000000000000000000000000000000000000001",
          "blockHash": "0x43073ab7c6526de06892740a2b98ab8b53fe76115f0c5dde1aa65547bb3a71fe",
          "blockNumber": "0x7fe5f8",
          "transactionHash": "0x591c65226c3cc46e74e0317e9e41fcb670e2eb4ba83d83755f999f9d6184a618",
          "transactionIndex": "0x9",
          "logIndex": "0x30",
          "removed": false
        },
        {
          "address": "0x6053dE194226843E4FD99A82C1386B4C76E19E34",
          "topics": [
            "0xb9956173924f9c1204bae41dd3737d7ed1161846d13183879cdc03c4b9f8d019",
            "0x0000000000000000000000000000000000000000000000000000000000000016",
            "0xa7fecc14dec0fa3976bf65d3f485d60f1d466589ff2b08c70e2001f3932b7222"
          ],
          "data": "0x000000000000000000000000000000000000000000000000000000000000007800000000000000000000000000000000000000000000000000000000000000e00000000000000000000000000000000000000000000000000000000000000000000000000000000000000000000000000000000000000000000000000000000000000000000000000000000000000000000000000000000000000000000000010000000000000000000000000000000000000000000000000000000063d2f2b8000000000000000000000000000000000000000000000000000000000000028000000000000000000000000000000000000000000000000000000000000001648d80ff0a00000000000000000000000000000000000000000000000000000000000000200000000000000000000000000000000000000000000000000000000000000119006053de194226843e4fd99a82c1386b4c76e19e34000000000000000000000000000000000000000000000000000000000000000000000000000000000000000000000000000000000000000000000000000000c40f656a210000000000000000000000000000000000000000000000000000000000000040000000000000000000000000000000000000000000000000000000000000008000000000000000000000000000000000000000000000000000000000000000010000000000000000000000004d81fdbd5ef49b6b951dda724a69a973f7d9a5ec00000000000000000000000000000000000000000000000000000000000000010000000000000000000000000000000000000000000000000000000000000002000000000000000000000000000000000000000000000000000000000000000000000000000000000000000000000000000000000000000000000000000000000000627b2270726f706f73616c54797065223a20224144445f5348414d414e222c20227469746c65223a2022524f4d20746f205368616d616e222c20226465736372697074696f6e223a202244656d6f207468726f756768206120636f6e7472616374227d000000000000000000000000000000000000000000000000000000000000",
          "blockHash": "0x43073ab7c6526de06892740a2b98ab8b53fe76115f0c5dde1aa65547bb3a71fe",
          "blockNumber": "0x7fe5f8",
          "transactionHash": "0x591c65226c3cc46e74e0317e9e41fcb670e2eb4ba83d83755f999f9d6184a618",
          "transactionIndex": "0x9",
          "logIndex": "0x31",
          "removed": false
        },
        {
          "address": "0x4D81fDbD5ef49B6b951ddA724A69a973F7d9a5EC",
          "topics": [
            "0x7f26b83ff96e1f2b6a682f133852f6798a09c465da95921460cefb3847402498"
          ],
          "data": "0x0000000000000000000000000000000000000000000000000000000000000001",
          "blockHash": "0x43073ab7c6526de06892740a2b98ab8b53fe76115f0c5dde1aa65547bb3a71fe",
          "blockNumber": "0x7fe5f8",
          "transactionHash": "0x591c65226c3cc46e74e0317e9e41fcb670e2eb4ba83d83755f999f9d6184a618",
          "transactionIndex": "0x9",
          "logIndex": "0x32",
          "removed": false
        },
        {
          "address": "0x00b52e6d26026C853f89dC895F0ae2b0Ba7FECaA",
          "topics": [
            "0xdb1360348b9d54bfb6c13492d3f409e853ecb6998f117acb7c6ea0a81dce12ba"
          ],
          "data": "0x0000000000000000000000004d81fdbd5ef49b6b951dda724a69a973f7d9a5ec0000000000000000000000001a4b691738c9c8db8f2edf0b9207f6acb24adf0700000000000000000000000036c471df23d4fa73c6dabc4f47612533260e65680000000000000000000000006053de194226843e4fd99a82c1386b4c76e19e34000000000000000000000000a49df10dd5b84257de634f4350218f615471fc690000000000000000000000006053de194226843e4fd99a82c1386b4c76e19e34000000000000000000000000000000000000000000000000000000000000000a0000000000000000000000000000000000000000000000878678326eac90000000000000000000000000000000000000000000000000000000000000000d2f00",
          "blockHash": "0x43073ab7c6526de06892740a2b98ab8b53fe76115f0c5dde1aa65547bb3a71fe",
          "blockNumber": "0x7fe5f8",
          "transactionHash": "0x591c65226c3cc46e74e0317e9e41fcb670e2eb4ba83d83755f999f9d6184a618",
          "transactionIndex": "0x9",
          "logIndex": "0x33",
          "removed": false
        }
      ],
      "status": "0x1",
      "logsBloom": "0x0000000040000000004000000001200000000000000001000000000000001020804000000000000080400000000000002001000000000020000000004001200000200102000000080008000020000000002800000000000800000002101000000000008002000001800000800000080020001000000401008010000000000000002440000000000000000000000000000000002040008000000000000000000000000002000000000004000010040100000400000000220000000000000000000020000000000100000400200004000100000000000880001000000020002808000000001000000000000000002000000000008000000001800c088000000000",
      "type": "0x2",
      "effectiveGasPrice": "0x2667fc37b"
    }
  ],
  "libraries": [],
  "pending": [],
  "path": "/Users/hunterking/Desktop/ROM/rom-curr/RiteOfMoloch-v1.0/broadcast/DeployClone.s.sol/5/run-latest.json",
  "returns": {},
  "timestamp": 1674769087,
  "chain": 5,
  "multi": false,
  "commit": "6b9b67c"
}