{
  "transactions": [
    {
      "hash": "0x591c65226c3cc46e74e0317e9e41fcb670e2eb4ba83d83755f999f9d6184a618",
      "transactionType": "CALL",
      "contractName": "RiteOfMolochFactory",
      "contractAddress": "0x00b52e6d26026C853f89dC895F0ae2b0Ba7FECaA",
      "function": "createCohort((address,address,address,address,address,uint256,uint256,uint256,uint256,uint256,uint256,string,string,string,string),uint256):(address)",
      "arguments": [
        "(0x6053dE194226843E4FD99A82C1386B4C76E19E34, 0xA49dF10dD5B84257dE634F4350218f615471Fc69, 0x6053dE194226843E4FD99A82C1386B4C76E19E34, 0xa25256073cB38b8CAF83b208949E7f746f3BEBDc, 0x0000000000000000000000000000000000000000, 5, 864000, 10, 2500000000000000000000, 864000, 0, SeasonV, RiteOfMolochSBT, SBTMoloch, )",
        "1"
      ],
      "rpc": "https://eth-goerli.g.alchemy.com/v2/49Z_NgeD3j-WxnHQzifUkHA_IZUCKyrZ",
      "transaction": {
        "type": "0x02",
        "from": "0x1a4b691738c9c8db8f2edf0b9207f6acb24adf07",
        "to": "0x00b52e6d26026c853f89dc895f0ae2b0ba7fecaa",
        "gas": "0x1abd8d",
        "value": "0x0",
        "data": "0x5984601b000000000000000000000000000000000000000000000000000000000000004000000000000000000000000000000000000000000000000000000000000000010000000000000000000000006053de194226843e4fd99a82c1386b4c76e19e34000000000000000000000000a49df10dd5b84257de634f4350218f615471fc690000000000000000000000006053de194226843e4fd99a82c1386b4c76e19e34000000000000000000000000a25256073cb38b8caf83b208949e7f746f3bebdc0000000000000000000000000000000000000000000000000000000000000000000000000000000000000000000000000000000000000000000000000000000500000000000000000000000000000000000000000000000000000000000d2f00000000000000000000000000000000000000000000000000000000000000000a0000000000000000000000000000000000000000000000878678326eac90000000000000000000000000000000000000000000000000000000000000000d2f00000000000000000000000000000000000000000000000000000000000000000000000000000000000000000000000000000000000000000000000000000001e00000000000000000000000000000000000000000000000000000000000000220000000000000000000000000000000000000000000000000000000000000026000000000000000000000000000000000000000000000000000000000000002a00000000000000000000000000000000000000000000000000000000000000007536561736f6e5600000000000000000000000000000000000000000000000000000000000000000000000000000000000000000000000000000000000000000f526974654f664d6f6c6f6368534254000000000000000000000000000000000000000000000000000000000000000000000000000000000000000000000000095342544d6f6c6f636800000000000000000000000000000000000000000000000000000000000000000000000000000000000000000000000000000000000000",
        "nonce": "0x178",
        "accessList": []
      },
      "additionalContracts": [
        {
          "transactionType": "CREATE",
          "address": "0x4D81fDbD5ef49B6b951ddA724A69a973F7d9a5EC",
          "initCode": "3d602d80600a3d3981f3363d3d373d3d3d363d7336c471df23d4fa73c6dabc4f47612533260e65685af43d82803e903d91602b57fd5bf3"
        }
      ]
    }
  ],
  "receipts": [],
  "libraries": [],
  "pending": [
    "0x591c65226c3cc46e74e0317e9e41fcb670e2eb4ba83d83755f999f9d6184a618"
  ],
  "path": "/Users/hunterking/Desktop/ROM/rom-curr/RiteOfMoloch-v1.0/broadcast/DeployClone.s.sol/5/run-latest.json",
  "returns": {},
  "timestamp": 1674769054,
  "chain": 5,
  "multi": false,
  "commit": "6b9b67c"
}