{
  "transactions": [
    {
      "hash": "0xa894b3ed07cb572278bc5d3b079bd6711f3975bdff4cf1f9349f3df7c05650de",
      "transactionType": "CALL",
      "contractName": "RiteOfMolochFactory",
      "contractAddress": "0x00b52e6d26026C853f89dC895F0ae2b0Ba7FECaA",
      "function": "createCohort((address,address,address,address,address,uint256,uint256,uint256,uint256,uint256,uint256,string,string,string,string),uint256):(address)",
      "arguments": [
        "(0x6053dE194226843E4FD99A82C1386B4C76E19E34, 0xA49dF10dD5B84257dE634F4350218f615471Fc69, 0x6053dE194226843E4FD99A82C1386B4C76E19E34, 0xa25256073cB38b8CAF83b208949E7f746f3BEBDc, 0x0000000000000000000000000000000000000000, 5, 864000, 10, 2500000000000000000000, 864000, 0, SeasonV, RiteOfMolochSBT, SBTMoloch, )",
        "1"
      ],
      "rpc": "https://eth-goerli.g.alchemy.com/v2/49Z_NgeD3j-WxnHQzifUkHA_IZUCKyrZ",
      "transaction": {
        "type": "0x02",
        "from": "0x1a4b691738c9c8db8f2edf0b9207f6acb24adf07",
        "to": "0x00b52e6d26026c853f89dc895f0ae2b0ba7fecaa",
        "gas": "0x1abd8d",
        "value": "0x0",
        "data": "0x5984601b000000000000000000000000000000000000000000000000000000000000004000000000000000000000000000000000000000000000000000000000000000010000000000000000000000006053de194226843e4fd99a82c1386b4c76e19e34000000000000000000000000a49df10dd5b84257de634f4350218f615471fc690000000000000000000000006053de194226843e4fd99a82c1386b4c76e19e34000000000000000000000000a25256073cb38b8caf83b208949e7f746f3bebdc0000000000000000000000000000000000000000000000000000000000000000000000000000000000000000000000000000000000000000000000000000000500000000000000000000000000000000000000000000000000000000000d2f00000000000000000000000000000000000000000000000000000000000000000a0000000000000000000000000000000000000000000000878678326eac90000000000000000000000000000000000000000000000000000000000000000d2f00000000000000000000000000000000000000000000000000000000000000000000000000000000000000000000000000000000000000000000000000000001e00000000000000000000000000000000000000000000000000000000000000220000000000000000000000000000000000000000000000000000000000000026000000000000000000000000000000000000000000000000000000000000002a00000000000000000000000000000000000000000000000000000000000000007536561736f6e5600000000000000000000000000000000000000000000000000000000000000000000000000000000000000000000000000000000000000000f526974654f664d6f6c6f6368534254000000000000000000000000000000000000000000000000000000000000000000000000000000000000000000000000095342544d6f6c6f636800000000000000000000000000000000000000000000000000000000000000000000000000000000000000000000000000000000000000",
        "nonce": "0x174",
        "accessList": []
      },
      "additionalContracts": [
        {
          "transactionType": "CREATE",
          "address": "0xe7BCfb59ED04BD23108b9B3A9EBFc9dFDBD48D07",
          "initCode": "3d602d80600a3d3981f3363d3d373d3d3d363d7336c471df23d4fa73c6dabc4f47612533260e65685af43d82803e903d91602b57fd5bf3"
        }
      ]
    }
  ],
  "receipts": [
    {
      "transactionHash": "0xa894b3ed07cb572278bc5d3b079bd6711f3975bdff4cf1f9349f3df7c05650de",
      "transactionIndex": "0x3",
      "blockHash": "0x5671efbfbbcd21a75c925785649e7bcb8e98e6ffc83db5cc6939455b4bafb37c",
      "blockNumber": "0x7fe557",
      "from": "0x1A4B691738C9c8Db8f2EDf0b9207f6acb24ADF07",
      "to": "0x00b52e6d26026C853f89dC895F0ae2b0Ba7FECaA",
      "cumulativeGasUsed": "0x1480d0",
      "gasUsed": "0x135c0f",
      "contractAddress": null,
      "logs": [
        {
          "address": "0xe7BCfb59ED04BD23108b9B3A9EBFc9dFDBD48D07",
          "topics": [
            "0xb4b5fad09421a48c68e8513475c3adbf47ed48a5eefe543d4fec52c82db47469"
          ],
          "data": "0x0000000000000000000000000000000000000000000000878678326eac900000",
          "blockHash": "0x5671efbfbbcd21a75c925785649e7bcb8e98e6ffc83db5cc6939455b4bafb37c",
          "blockNumber": "0x7fe557",
          "transactionHash": "0xa894b3ed07cb572278bc5d3b079bd6711f3975bdff4cf1f9349f3df7c05650de",
          "transactionIndex": "0x3",
          "logIndex": "0x0",
          "removed": false
        },
        {
          "address": "0xe7BCfb59ED04BD23108b9B3A9EBFc9dFDBD48D07",
          "topics": [
            "0x856717cb327b027e506a205b6a989525427e169d7b6acb09ad84d849dea2b93f"
          ],
          "data": "0x00000000000000000000000000000000000000000000000000000000000d2f00",
          "blockHash": "0x5671efbfbbcd21a75c925785649e7bcb8e98e6ffc83db5cc6939455b4bafb37c",
          "blockNumber": "0x7fe557",
          "transactionHash": "0xa894b3ed07cb572278bc5d3b079bd6711f3975bdff4cf1f9349f3df7c05650de",
          "transactionIndex": "0x3",
          "logIndex": "0x1",
          "removed": false
        },
        {
          "address": "0xe7BCfb59ED04BD23108b9B3A9EBFc9dFDBD48D07",
          "topics": [
            "0xe2c5fed45442eae2ee9c94b63f1e24155d9bfe92ecd80e48c35ebf2927675737",
            "0x0000000000000000000000000000000000000000000000000000000000000000",
            "0x000000000000000000000000cf912a0193593f5cd55d81ff611c26c3ed63f924"
          ],
          "data": "0x",
          "blockHash": "0x5671efbfbbcd21a75c925785649e7bcb8e98e6ffc83db5cc6939455b4bafb37c",
          "blockNumber": "0x7fe557",
          "transactionHash": "0xa894b3ed07cb572278bc5d3b079bd6711f3975bdff4cf1f9349f3df7c05650de",
          "transactionIndex": "0x3",
          "logIndex": "0x2",
          "removed": false
        },
        {
          "address": "0xcf912a0193593f5cD55D81FF611c26c3ED63f924",
          "topics": [
            "0x4d38ad12136291322128027bb8c3af7db2261be395032c1d26dd0ad20cf29415"
          ],
          "data": "0x000000370000000000000000000000000000000000000000000000000000000000000000000000000000000000000000000000000000000000000000000000e000000000000000000000000000000000000000000000000000000000000000010000000000000000000000000000000000000000000000000000000000000000000000000000000000000000000000000000000000000000000000000000000000000000000000000000000000000000000000000000000000000000000000000000000000000000000000000000000000000000000000000000000000000120000000000000000000000000000000000000000000000000000000000000000a524f4d20546f70486174000000000000000000000000000000000000000000000000000000000000000000000000000000000000000000000000000000000000",
          "blockHash": "0x5671efbfbbcd21a75c925785649e7bcb8e98e6ffc83db5cc6939455b4bafb37c",
          "blockNumber": "0x7fe557",
          "transactionHash": "0xa894b3ed07cb572278bc5d3b079bd6711f3975bdff4cf1f9349f3df7c05650de",
          "transactionIndex": "0x3",
          "logIndex": "0x3",
          "removed": false
        },
        {
          "address": "0xcf912a0193593f5cD55D81FF611c26c3ED63f924",
          "topics": [
            "0xc3d58168c5ae7397731d063d5bbf3d657854427343f4c083240f7aacaa2d0f62",
            "0x000000000000000000000000e7bcfb59ed04bd23108b9b3a9ebfc9dfdbd48d07",
            "0x0000000000000000000000000000000000000000000000000000000000000000",
            "0x000000000000000000000000e7bcfb59ed04bd23108b9b3a9ebfc9dfdbd48d07"
          ],
          "data": "0x00000037000000000000000000000000000000000000000000000000000000000000000000000000000000000000000000000000000000000000000000000001",
          "blockHash": "0x5671efbfbbcd21a75c925785649e7bcb8e98e6ffc83db5cc6939455b4bafb37c",
          "blockNumber": "0x7fe557",
          "transactionHash": "0xa894b3ed07cb572278bc5d3b079bd6711f3975bdff4cf1f9349f3df7c05650de",
          "transactionIndex": "0x3",
          "logIndex": "0x4",
          "removed": false
        },
        {
          "address": "0xcf912a0193593f5cD55D81FF611c26c3ED63f924",
          "topics": [
            "0x4d38ad12136291322128027bb8c3af7db2261be395032c1d26dd0ad20cf29415"
          ],
          "data": "0x000000370100000000000000000000000000000000000000000000000000000000000000000000000000000000000000000000000000000000000000000000e000000000000000000000000000000000000000000000000000000000000000010000000000000000000000006053de194226843e4fd99a82c1386b4c76e19e340000000000000000000000006053de194226843e4fd99a82c1386b4c76e19e3400000000000000000000000000000000000000000000000000000000000000010000000000000000000000000000000000000000000000000000000000000120000000000000000000000000000000000000000000000000000000000000000f524f4d2053757065722d41646d696e00000000000000000000000000000000000000000000000000000000000000000000000000000000000000000000000000",
          "blockHash": "0x5671efbfbbcd21a75c925785649e7bcb8e98e6ffc83db5cc6939455b4bafb37c",
          "blockNumber": "0x7fe557",
          "transactionHash": "0xa894b3ed07cb572278bc5d3b079bd6711f3975bdff4cf1f9349f3df7c05650de",
          "transactionIndex": "0x3",
          "logIndex": "0x5",
          "removed": false
        },
        {
          "address": "0xcf912a0193593f5cD55D81FF611c26c3ED63f924",
          "topics": [
            "0x4d38ad12136291322128027bb8c3af7db2261be395032c1d26dd0ad20cf29415"
          ],
          "data": "0x000000370101000000000000000000000000000000000000000000000000000000000000000000000000000000000000000000000000000000000000000000e000000000000000000000000000000000000000000000000000000000000000030000000000000000000000001a4b691738c9c8db8f2edf0b9207f6acb24adf070000000000000000000000001a4b691738c9c8db8f2edf0b9207f6acb24adf07000000000000000000000000000000000000000000000000000000000000000100000000000000000000000000000000000000000000000000000000000001200000000000000000000000000000000000000000000000000000000000000009524f4d2041646d696e00000000000000000000000000000000000000000000000000000000000000000000000000000000000000000000000000000000000000",
          "blockHash": "0x5671efbfbbcd21a75c925785649e7bcb8e98e6ffc83db5cc6939455b4bafb37c",
          "blockNumber": "0x7fe557",
          "transactionHash": "0xa894b3ed07cb572278bc5d3b079bd6711f3975bdff4cf1f9349f3df7c05650de",
          "transactionIndex": "0x3",
          "logIndex": "0x6",
          "removed": false
        },
        {
          "address": "0xcf912a0193593f5cD55D81FF611c26c3ED63f924",
          "topics": [
            "0xc3d58168c5ae7397731d063d5bbf3d657854427343f4c083240f7aacaa2d0f62",
            "0x000000000000000000000000e7bcfb59ed04bd23108b9b3a9ebfc9dfdbd48d07",
            "0x0000000000000000000000000000000000000000000000000000000000000000",
            "0x0000000000000000000000001a4b691738c9c8db8f2edf0b9207f6acb24adf07"
          ],
          "data": "0x00000037010000000000000000000000000000000000000000000000000000000000000000000000000000000000000000000000000000000000000000000001",
          "blockHash": "0x5671efbfbbcd21a75c925785649e7bcb8e98e6ffc83db5cc6939455b4bafb37c",
          "blockNumber": "0x7fe557",
          "transactionHash": "0xa894b3ed07cb572278bc5d3b079bd6711f3975bdff4cf1f9349f3df7c05650de",
          "transactionIndex": "0x3",
          "logIndex": "0x7",
          "removed": false
        },
        {
          "address": "0xcf912a0193593f5cD55D81FF611c26c3ED63f924",
          "topics": [
            "0xc3d58168c5ae7397731d063d5bbf3d657854427343f4c083240f7aacaa2d0f62",
            "0x000000000000000000000000e7bcfb59ed04bd23108b9b3a9ebfc9dfdbd48d07",
            "0x0000000000000000000000000000000000000000000000000000000000000000",
            "0x0000000000000000000000001a4b691738c9c8db8f2edf0b9207f6acb24adf07"
          ],
          "data": "0x00000037010100000000000000000000000000000000000000000000000000000000000000000000000000000000000000000000000000000000000000000001",
          "blockHash": "0x5671efbfbbcd21a75c925785649e7bcb8e98e6ffc83db5cc6939455b4bafb37c",
          "blockNumber": "0x7fe557",
          "transactionHash": "0xa894b3ed07cb572278bc5d3b079bd6711f3975bdff4cf1f9349f3df7c05650de",
          "transactionIndex": "0x3",
          "logIndex": "0x8",
          "removed": false
        },
        {
          "address": "0xcf912a0193593f5cD55D81FF611c26c3ED63f924",
          "topics": [
            "0xc3d58168c5ae7397731d063d5bbf3d657854427343f4c083240f7aacaa2d0f62",
            "0x000000000000000000000000e7bcfb59ed04bd23108b9b3a9ebfc9dfdbd48d07",
            "0x0000000000000000000000000000000000000000000000000000000000000000",
            "0x000000000000000000000000a25256073cb38b8caf83b208949e7f746f3bebdc"
          ],
          "data": "0x00000037010100000000000000000000000000000000000000000000000000000000000000000000000000000000000000000000000000000000000000000001",
          "blockHash": "0x5671efbfbbcd21a75c925785649e7bcb8e98e6ffc83db5cc6939455b4bafb37c",
          "blockNumber": "0x7fe557",
          "transactionHash": "0xa894b3ed07cb572278bc5d3b079bd6711f3975bdff4cf1f9349f3df7c05650de",
          "transactionIndex": "0x3",
          "logIndex": "0x9",
          "removed": false
        },
        {
          "address": "0xe7BCfb59ED04BD23108b9B3A9EBFc9dFDBD48D07",
          "topics": [
            "0x7c2a2c4bb5a44dafa473fc49e557303dba6db62123713789deefe8ccb3846549",
            "0xd980155b32cf66e6af51e0972d64b9d5efe0e6f237dfaa4bdc83f990dd79e9c8",
            "0x0000003701000000000000000000000000000000000000000000000000000000",
            "0x00000000000000000000000000b52e6d26026c853f89dc895f0ae2b0ba7fecaa"
          ],
          "data": "0x",
          "blockHash": "0x5671efbfbbcd21a75c925785649e7bcb8e98e6ffc83db5cc6939455b4bafb37c",
          "blockNumber": "0x7fe557",
          "transactionHash": "0xa894b3ed07cb572278bc5d3b079bd6711f3975bdff4cf1f9349f3df7c05650de",
          "transactionIndex": "0x3",
          "logIndex": "0xa",
          "removed": false
        },
        {
          "address": "0xe7BCfb59ED04BD23108b9B3A9EBFc9dFDBD48D07",
          "topics": [
            "0x7c2a2c4bb5a44dafa473fc49e557303dba6db62123713789deefe8ccb3846549",
            "0xdf8b4c520ffe197c5343c6f5aec59570151ef9a492f2c624fd45ddde6135ec42",
            "0x0000003701010000000000000000000000000000000000000000000000000000",
            "0x00000000000000000000000000b52e6d26026c853f89dc895f0ae2b0ba7fecaa"
          ],
          "data": "0x",
          "blockHash": "0x5671efbfbbcd21a75c925785649e7bcb8e98e6ffc83db5cc6939455b4bafb37c",
          "blockNumber": "0x7fe557",
          "transactionHash": "0xa894b3ed07cb572278bc5d3b079bd6711f3975bdff4cf1f9349f3df7c05650de",
          "transactionIndex": "0x3",
          "logIndex": "0xb",
          "removed": false
        },
        {
          "address": "0xcf912a0193593f5cD55D81FF611c26c3ED63f924",
          "topics": [
            "0xc3d58168c5ae7397731d063d5bbf3d657854427343f4c083240f7aacaa2d0f62",
            "0x000000000000000000000000e7bcfb59ed04bd23108b9b3a9ebfc9dfdbd48d07",
            "0x000000000000000000000000e7bcfb59ed04bd23108b9b3a9ebfc9dfdbd48d07",
            "0x0000000000000000000000006053de194226843e4fd99a82c1386b4c76e19e34"
          ],
          "data": "0x00000037000000000000000000000000000000000000000000000000000000000000000000000000000000000000000000000000000000000000000000000001",
          "blockHash": "0x5671efbfbbcd21a75c925785649e7bcb8e98e6ffc83db5cc6939455b4bafb37c",
          "blockNumber": "0x7fe557",
          "transactionHash": "0xa894b3ed07cb572278bc5d3b079bd6711f3975bdff4cf1f9349f3df7c05650de",
          "transactionIndex": "0x3",
          "logIndex": "0xc",
          "removed": false
        },
        {
          "address": "0x6053dE194226843E4FD99A82C1386B4C76E19E34",
          "topics": [
            "0xb9956173924f9c1204bae41dd3737d7ed1161846d13183879cdc03c4b9f8d019",
            "0x0000000000000000000000000000000000000000000000000000000000000012",
            "0x819fb645cd979a7606c8983f34721302d93b54fba639a98a7963f9e30d876f7e"
          ],
          "data": "0x000000000000000000000000000000000000000000000000000000000000007800000000000000000000000000000000000000000000000000000000000000e00000000000000000000000000000000000000000000000000000000000000000000000000000000000000000000000000000000000000000000000000000000000000000000000000000000000000000000000000000000000000000000000010000000000000000000000000000000000000000000000000000000063d2e8ec000000000000000000000000000000000000000000000000000000000000028000000000000000000000000000000000000000000000000000000000000001648d80ff0a00000000000000000000000000000000000000000000000000000000000000200000000000000000000000000000000000000000000000000000000000000119006053de194226843e4fd99a82c1386b4c76e19e34000000000000000000000000000000000000000000000000000000000000000000000000000000000000000000000000000000000000000000000000000000c40f656a21000000000000000000000000000000000000000000000000000000000000004000000000000000000000000000000000000000000000000000000000000000800000000000000000000000000000000000000000000000000000000000000001000000000000000000000000e7bcfb59ed04bd23108b9b3a9ebfc9dfdbd48d0700000000000000000000000000000000000000000000000000000000000000010000000000000000000000000000000000000000000000000000000000000002000000000000000000000000000000000000000000000000000000000000000000000000000000000000000000000000000000000000000000000000000000000000627b2270726f706f73616c54797065223a20224144445f5348414d414e222c20227469746c65223a2022524f4d20746f205368616d616e222c20226465736372697074696f6e223a202244656d6f207468726f756768206120636f6e7472616374227d000000000000000000000000000000000000000000000000000000000000",
          "blockHash": "0x5671efbfbbcd21a75c925785649e7bcb8e98e6ffc83db5cc6939455b4bafb37c",
          "blockNumber": "0x7fe557",
          "transactionHash": "0xa894b3ed07cb572278bc5d3b079bd6711f3975bdff4cf1f9349f3df7c05650de",
          "transactionIndex": "0x3",
          "logIndex": "0xd",
          "removed": false
        },
        {
          "address": "0xe7BCfb59ED04BD23108b9B3A9EBFc9dFDBD48D07",
          "topics": [
            "0x7f26b83ff96e1f2b6a682f133852f6798a09c465da95921460cefb3847402498"
          ],
          "data": "0x0000000000000000000000000000000000000000000000000000000000000001",
          "blockHash": "0x5671efbfbbcd21a75c925785649e7bcb8e98e6ffc83db5cc6939455b4bafb37c",
          "blockNumber": "0x7fe557",
          "transactionHash": "0xa894b3ed07cb572278bc5d3b079bd6711f3975bdff4cf1f9349f3df7c05650de",
          "transactionIndex": "0x3",
          "logIndex": "0xe",
          "removed": false
        },
        {
          "address": "0x00b52e6d26026C853f89dC895F0ae2b0Ba7FECaA",
          "topics": [
            "0xdb1360348b9d54bfb6c13492d3f409e853ecb6998f117acb7c6ea0a81dce12ba"
          ],
          "data": "0x000000000000000000000000e7bcfb59ed04bd23108b9b3a9ebfc9dfdbd48d070000000000000000000000001a4b691738c9c8db8f2edf0b9207f6acb24adf0700000000000000000000000036c471df23d4fa73c6dabc4f47612533260e65680000000000000000000000006053de194226843e4fd99a82c1386b4c76e19e34000000000000000000000000a49df10dd5b84257de634f4350218f615471fc690000000000000000000000006053de194226843e4fd99a82c1386b4c76e19e34000000000000000000000000000000000000000000000000000000000000000a0000000000000000000000000000000000000000000000878678326eac90000000000000000000000000000000000000000000000000000000000000000d2f00",
          "blockHash": "0x5671efbfbbcd21a75c925785649e7bcb8e98e6ffc83db5cc6939455b4bafb37c",
          "blockNumber": "0x7fe557",
          "transactionHash": "0xa894b3ed07cb572278bc5d3b079bd6711f3975bdff4cf1f9349f3df7c05650de",
          "transactionIndex": "0x3",
          "logIndex": "0xf",
          "removed": false
        }
      ],
      "status": "0x1",
      "logsBloom": "0x00000000000000000040000000012000000000000000010004000000000010208140000000000000804000000000000020010000000000200000000040012000002001000000000000080000200000000020000000000000000000021010000000000080020000010000008000000800000010000404010080000000000000000004420000008002000020000000040000000020400c80000000000000000000000000020000000004040000120401000004000000202040000000000000000040000000000000000404000000040001000002000008800010000000000028080000000010000000000000000020000000000080000000018001080000000000",
      "type": "0x2",
      "effectiveGasPrice": "0x186aedac2"
    }
  ],
  "libraries": [],
  "pending": [],
  "path": "/Users/hunterking/Desktop/ROM/rom-curr/RiteOfMoloch-v1.0/broadcast/DeployClone.s.sol/5/run-latest.json",
  "returns": {},
  "timestamp": 1674766577,
  "chain": 5,
  "multi": false,
  "commit": "6b9b67c"
}