{
  "transactions": [
    {
      "hash": "0xb0822d8df48d80d76a843f90033603d1f650b13fbcc019fc383d92c91d656bd8",
      "transactionType": "CALL",
      "contractName": "Baal",
      "contractAddress": "0x6c9110CBbCD400b768646729E5b400F0B5A6BCC7",
      "function": "submitProposal(bytes,uint32,uint256,string):(uint256)",
      "arguments": [
        "0x0f656a210000000000000000000000003de5da236c66b8c6cf3d8b846615144eaba65ff90000000000000000000000000000000000000000000000000000000000000007",
        "0",
        "21000",
        "ROM to Shaman (Basic)"
      ],
      "rpc": "https://eth-goerli.g.alchemy.com/v2/49Z_NgeD3j-WxnHQzifUkHA_IZUCKyrZ",
      "transaction": {
        "type": "0x02",
        "from": "0x1a4b691738c9c8db8f2edf0b9207f6acb24adf07",
        "to": "0x6c9110cbbcd400b768646729e5b400f0b5a6bcc7",
        "gas": "0x54a60",
        "value": "0x0",
        "data": "0x3a82ffc8000000000000000000000000000000000000000000000000000000000000008000000000000000000000000000000000000000000000000000000000000000000000000000000000000000000000000000000000000000000000000000005208000000000000000000000000000000000000000000000000000000000000010000000000000000000000000000000000000000000000000000000000000000440f656a210000000000000000000000003de5da236c66b8c6cf3d8b846615144eaba65ff90000000000000000000000000000000000000000000000000000000000000007000000000000000000000000000000000000000000000000000000000000000000000000000000000000000000000000000000000000000000000015524f4d20746f205368616d616e20284261736963290000000000000000000000",
        "nonce": "0x141",
        "accessList": []
      },
      "additionalContracts": []
    }
  ],
  "receipts": [
    {
      "transactionHash": "0xb0822d8df48d80d76a843f90033603d1f650b13fbcc019fc383d92c91d656bd8",
      "transactionIndex": "0x1",
      "blockHash": "0xa84fdb59aa1ba4803e1c0f99dc2fdea7f813b375d2a88766fa23605bb25c5a6f",
      "blockNumber": "0x7fb455",
      "from": "0x1A4B691738C9c8Db8f2EDf0b9207f6acb24ADF07",
      "to": "0x6c9110CBbCD400b768646729E5b400F0B5A6BCC7",
      "cumulativeGasUsed": "0x4bebd",
      "gasUsed": "0x39e12",
      "contractAddress": null,
      "logs": [
        {
          "address": "0x6c9110CBbCD400b768646729E5b400F0B5A6BCC7",
          "topics": [
            "0xb9956173924f9c1204bae41dd3737d7ed1161846d13183879cdc03c4b9f8d019",
            "0x0000000000000000000000000000000000000000000000000000000000000007",
            "0x0951f0c019b95a9772ba7e088d79f40077f90d46949b79050be7186ddefe5338"
          ],
          "data": "0x00000000000000000000000000000000000000000000000000000000000004b000000000000000000000000000000000000000000000000000000000000000e00000000000000000000000000000000000000000000000000000000000000000000000000000000000000000000000000000000000000000000000000000520800000000000000000000000000000000000000000000000000000000000000010000000000000000000000000000000000000000000000000000000063d01acc000000000000000000000000000000000000000000000000000000000000016000000000000000000000000000000000000000000000000000000000000000440f656a210000000000000000000000003de5da236c66b8c6cf3d8b846615144eaba65ff90000000000000000000000000000000000000000000000000000000000000007000000000000000000000000000000000000000000000000000000000000000000000000000000000000000000000000000000000000000000000015524f4d20746f205368616d616e20284261736963290000000000000000000000",
          "blockHash": "0xa84fdb59aa1ba4803e1c0f99dc2fdea7f813b375d2a88766fa23605bb25c5a6f",
          "blockNumber": "0x7fb455",
          "transactionHash": "0xb0822d8df48d80d76a843f90033603d1f650b13fbcc019fc383d92c91d656bd8",
          "transactionIndex": "0x1",
          "logIndex": "0x1",
          "removed": false
        }
      ],
      "status": "0x1",
      "logsBloom": "0x00000000000000000000000000000000000100000000000000004000000000000000000000000000000000000000000000011000000000200000000000000000200020000000000000000000000000000000000000000000000000020000000000000000000000000000000000000000000000000000000000000800000000000000000000000000000000000000000000000000000000000000000000000000000000000000000000000000000000000000000000000000000000000000000000000000000000000000000000000000000000000000000000000100000000000000800000000000000000000000000000000100000000000000000000000000",
      "type": "0x2",
      "effectiveGasPrice": "0xb2d05e77"
    }
  ],
  "libraries": [],
  "pending": [],
  "path": "/Users/hunterking/Desktop/ROM/rom-curr/RiteOfMoloch-v1.0/broadcast/ShamanBasicProp.s.sol/5/run-latest.json",
  "returns": {},
  "timestamp": 1674582736,
  "chain": 5,
  "multi": false,
  "commit": "4eda292"
}