{
  "transactions": [
    {
      "hash": "0x668cbc81cba0d495384e77123e16e0497d759f9f4b1fc98f7a973c7eaad023a8",
      "transactionType": "CALL",
      "contractName": "Baal",
      "contractAddress": "0x6c9110CBbCD400b768646729E5b400F0B5A6BCC7",
      "function": "submitProposal(bytes,uint32,uint256,string):(uint256)",
      "arguments": [
        "0x0f656a210000000000000000000000003de5da236c66b8c6cf3d8b846615144eaba65ff90000000000000000000000000000000000000000000000000000000000000007",
        "0",
        "0",
        "{\"proposalType\": \"ADD_SHAMAN\", \"title\": \"ROM to Shaman\", \"description\": \"Demo through a contract\"}"
      ],
      "rpc": "https://eth-goerli.g.alchemy.com/v2/49Z_NgeD3j-WxnHQzifUkHA_IZUCKyrZ",
      "transaction": {
        "type": "0x02",
        "from": "0x1a4b691738c9c8db8f2edf0b9207f6acb24adf07",
        "to": "0x6c9110cbbcd400b768646729e5b400f0b5a6bcc7",
        "gas": "0x49f07",
        "value": "0x0",
        "data": "0x3a82ffc8000000000000000000000000000000000000000000000000000000000000008000000000000000000000000000000000000000000000000000000000000000000000000000000000000000000000000000000000000000000000000000000000000000000000000000000000000000000000000000000000000000000000010000000000000000000000000000000000000000000000000000000000000000440f656a210000000000000000000000003de5da236c66b8c6cf3d8b846615144eaba65ff900000000000000000000000000000000000000000000000000000000000000070000000000000000000000000000000000000000000000000000000000000000000000000000000000000000000000000000000000000000000000627b2270726f706f73616c54797065223a20224144445f5348414d414e222c20227469746c65223a2022524f4d20746f205368616d616e222c20226465736372697074696f6e223a202244656d6f207468726f756768206120636f6e7472616374227d000000000000000000000000000000000000000000000000000000000000",
        "nonce": "0x142",
        "accessList": []
      },
      "additionalContracts": []
    }
  ],
  "receipts": [
    {
      "transactionHash": "0x668cbc81cba0d495384e77123e16e0497d759f9f4b1fc98f7a973c7eaad023a8",
      "transactionIndex": "0x4",
      "blockHash": "0x45a7b35d5dbc7150ef6ec811d04f42ba556516a137812494d21f90594a7efde6",
      "blockNumber": "0x7fb45e",
      "from": "0x1A4B691738C9c8Db8f2EDf0b9207f6acb24ADF07",
      "to": "0x6c9110CBbCD400b768646729E5b400F0B5A6BCC7",
      "cumulativeGasUsed": "0x70bc0",
      "gasUsed": "0x3587f",
      "contractAddress": null,
      "logs": [
        {
          "address": "0x6c9110CBbCD400b768646729E5b400F0B5A6BCC7",
          "topics": [
            "0xb9956173924f9c1204bae41dd3737d7ed1161846d13183879cdc03c4b9f8d019",
            "0x0000000000000000000000000000000000000000000000000000000000000008",
            "0x0951f0c019b95a9772ba7e088d79f40077f90d46949b79050be7186ddefe5338"
          ],
          "data": "0x00000000000000000000000000000000000000000000000000000000000004b000000000000000000000000000000000000000000000000000000000000000e00000000000000000000000000000000000000000000000000000000000000000000000000000000000000000000000000000000000000000000000000000000000000000000000000000000000000000000000000000000000000000000000010000000000000000000000000000000000000000000000000000000063d01b50000000000000000000000000000000000000000000000000000000000000016000000000000000000000000000000000000000000000000000000000000000440f656a210000000000000000000000003de5da236c66b8c6cf3d8b846615144eaba65ff900000000000000000000000000000000000000000000000000000000000000070000000000000000000000000000000000000000000000000000000000000000000000000000000000000000000000000000000000000000000000627b2270726f706f73616c54797065223a20224144445f5348414d414e222c20227469746c65223a2022524f4d20746f205368616d616e222c20226465736372697074696f6e223a202244656d6f207468726f756768206120636f6e7472616374227d000000000000000000000000000000000000000000000000000000000000",
          "blockHash": "0x45a7b35d5dbc7150ef6ec811d04f42ba556516a137812494d21f90594a7efde6",
          "blockNumber": "0x7fb45e",
          "transactionHash": "0x668cbc81cba0d495384e77123e16e0497d759f9f4b1fc98f7a973c7eaad023a8",
          "transactionIndex": "0x4",
          "logIndex": "0x2",
          "removed": false
        }
      ],
      "status": "0x1",
      "logsBloom": "0x00000000000000000000000000000000000100000000000000004000000000000000000000000000000000000000000000010000000080200000000000000000200000000000000000000000000000000000000000000000000000020000000000000000000000000000000000000000000000000000000000000800000000000080000000000000000000000000000000000000000000000000000000000000000000000000000000000000000000000000000000000000000000000000000040000000000000000000000000000000000000000000000000000000000000000000800000000000000000000000000000000100000000000000000000000000",
      "type": "0x2",
      "effectiveGasPrice": "0xb2d05e6d"
    }
  ],
  "libraries": [],
  "pending": [],
  "path": "/Users/hunterking/Desktop/ROM/rom-curr/RiteOfMoloch-v1.0/broadcast/ShamanBasicProp.s.sol/5/run-latest.json",
  "returns": {},
  "timestamp": 1674582868,
  "chain": 5,
  "multi": false,
  "commit": "4eda292"
}