{
  "transactions": [
    {
      "hash": "0xb0822d8df48d80d76a843f90033603d1f650b13fbcc019fc383d92c91d656bd8",
      "transactionType": "CALL",
      "contractName": "Baal",
      "contractAddress": "0x6c9110CBbCD400b768646729E5b400F0B5A6BCC7",
      "function": "submitProposal(bytes,uint32,uint256,string):(uint256)",
      "arguments": [
        "0x0f656a210000000000000000000000003de5da236c66b8c6cf3d8b846615144eaba65ff90000000000000000000000000000000000000000000000000000000000000007",
        "0",
        "21000",
        "ROM to Shaman (Basic)"
      ],
      "rpc": "https://eth-goerli.g.alchemy.com/v2/49Z_NgeD3j-WxnHQzifUkHA_IZUCKyrZ",
      "transaction": {
        "type": "0x02",
        "from": "0x1a4b691738c9c8db8f2edf0b9207f6acb24adf07",
        "to": "0x6c9110cbbcd400b768646729e5b400f0b5a6bcc7",
        "gas": "0x54a60",
        "value": "0x0",
        "data": "0x3a82ffc8000000000000000000000000000000000000000000000000000000000000008000000000000000000000000000000000000000000000000000000000000000000000000000000000000000000000000000000000000000000000000000005208000000000000000000000000000000000000000000000000000000000000010000000000000000000000000000000000000000000000000000000000000000440f656a210000000000000000000000003de5da236c66b8c6cf3d8b846615144eaba65ff90000000000000000000000000000000000000000000000000000000000000007000000000000000000000000000000000000000000000000000000000000000000000000000000000000000000000000000000000000000000000015524f4d20746f205368616d616e20284261736963290000000000000000000000",
        "nonce": "0x141",
        "accessList": []
      },
      "additionalContracts": []
    }
  ],
  "receipts": [],
  "libraries": [],
  "pending": [
    "0xb0822d8df48d80d76a843f90033603d1f650b13fbcc019fc383d92c91d656bd8"
  ],
  "path": "/Users/hunterking/Desktop/ROM/rom-curr/RiteOfMoloch-v1.0/broadcast/ShamanBasicProp.s.sol/5/run-latest.json",
  "returns": {},
  "timestamp": 1674582716,
  "chain": 5,
  "multi": false,
  "commit": "4eda292"
}