{
  "transactions": [
    {
      "hash": "0xec3ee465727cdeb75ec156a6444d386b8ca37e6650e000d98b0a751417e50c54",
      "transactionType": "CALL",
      "contractName": "Baal",
      "contractAddress": "0x6c9110CBbCD400b768646729E5b400F0B5A6BCC7",
      "function": "submitProposal(bytes,uint32,uint256,string):(uint256)",
      "arguments": [
        "0x8d80ff0a00000000000000000000000000000000000000000000000000000000000000200000000000000000000000000000000000000000000000000000000000000119006c9110cbbcd400b768646729e5b400f0b5a6bcc7000000000000000000000000000000000000000000000000000000000000000000000000000000000000000000000000000000000000000000000000000000c40f656a210000000000000000000000000000000000000000000000000000000000000040000000000000000000000000000000000000000000000000000000000000008000000000000000000000000000000000000000000000000000000000000000010000000000000000000000003de5da236c66b8c6cf3d8b846615144eaba65ff90000000000000000000000000000000000000000000000000000000000000001000000000000000000000000000000000000000000000000000000000000000700000000000000",
        "0",
        "0",
        "{\"proposalType\": \"ADD_SHAMAN\", \"title\": \"ROM to Shaman\", \"description\": \"Demo through a contract\"}"
      ],
      "rpc": "https://eth-goerli.g.alchemy.com/v2/49Z_NgeD3j-WxnHQzifUkHA_IZUCKyrZ",
      "transaction": {
        "type": "0x02",
        "from": "0x1a4b691738c9c8db8f2edf0b9207f6acb24adf07",
        "to": "0x6c9110cbbcd400b768646729e5b400f0b5a6bcc7",
        "gas": "0x4b85c",
        "value": "0x0",
        "data": "0x3a82ffc8000000000000000000000000000000000000000000000000000000000000008000000000000000000000000000000000000000000000000000000000000000000000000000000000000000000000000000000000000000000000000000000000000000000000000000000000000000000000000000000000000000000000022000000000000000000000000000000000000000000000000000000000000001648d80ff0a00000000000000000000000000000000000000000000000000000000000000200000000000000000000000000000000000000000000000000000000000000119006c9110cbbcd400b768646729e5b400f0b5a6bcc7000000000000000000000000000000000000000000000000000000000000000000000000000000000000000000000000000000000000000000000000000000c40f656a210000000000000000000000000000000000000000000000000000000000000040000000000000000000000000000000000000000000000000000000000000008000000000000000000000000000000000000000000000000000000000000000010000000000000000000000003de5da236c66b8c6cf3d8b846615144eaba65ff900000000000000000000000000000000000000000000000000000000000000010000000000000000000000000000000000000000000000000000000000000007000000000000000000000000000000000000000000000000000000000000000000000000000000000000000000000000000000000000000000000000000000000000627b2270726f706f73616c54797065223a20224144445f5348414d414e222c20227469746c65223a2022524f4d20746f205368616d616e222c20226465736372697074696f6e223a202244656d6f207468726f756768206120636f6e7472616374227d000000000000000000000000000000000000000000000000000000000000",
        "nonce": "0x13f",
        "accessList": []
      },
      "additionalContracts": []
    }
  ],
  "receipts": [
    {
      "transactionHash": "0xec3ee465727cdeb75ec156a6444d386b8ca37e6650e000d98b0a751417e50c54",
      "transactionIndex": "0x4",
      "blockHash": "0xcea586901c50000a45971f0bd5fc6298122ac4d267085c30b09d05127e10be66",
      "blockNumber": "0x7fb3cc",
      "from": "0x1A4B691738C9c8Db8f2EDf0b9207f6acb24ADF07",
      "to": "0x6c9110CBbCD400b768646729E5b400F0B5A6BCC7",
      "cumulativeGasUsed": "0x6805b",
      "gasUsed": "0x36ad5",
      "contractAddress": null,
      "logs": [
        {
          "address": "0x6c9110CBbCD400b768646729E5b400F0B5A6BCC7",
          "topics": [
            "0xb9956173924f9c1204bae41dd3737d7ed1161846d13183879cdc03c4b9f8d019",
            "0x0000000000000000000000000000000000000000000000000000000000000005",
            "0x73cc270eefbddf1388a67bc00d65de30e93b5c90cd20158770a247f05ed8a2c5"
          ],
          "data": "0x00000000000000000000000000000000000000000000000000000000000004b000000000000000000000000000000000000000000000000000000000000000e00000000000000000000000000000000000000000000000000000000000000000000000000000000000000000000000000000000000000000000000000000000000000000000000000000000000000000000000000000000000000000000000010000000000000000000000000000000000000000000000000000000063d012c8000000000000000000000000000000000000000000000000000000000000028000000000000000000000000000000000000000000000000000000000000001648d80ff0a00000000000000000000000000000000000000000000000000000000000000200000000000000000000000000000000000000000000000000000000000000119006c9110cbbcd400b768646729e5b400f0b5a6bcc7000000000000000000000000000000000000000000000000000000000000000000000000000000000000000000000000000000000000000000000000000000c40f656a210000000000000000000000000000000000000000000000000000000000000040000000000000000000000000000000000000000000000000000000000000008000000000000000000000000000000000000000000000000000000000000000010000000000000000000000003de5da236c66b8c6cf3d8b846615144eaba65ff900000000000000000000000000000000000000000000000000000000000000010000000000000000000000000000000000000000000000000000000000000007000000000000000000000000000000000000000000000000000000000000000000000000000000000000000000000000000000000000000000000000000000000000627b2270726f706f73616c54797065223a20224144445f5348414d414e222c20227469746c65223a2022524f4d20746f205368616d616e222c20226465736372697074696f6e223a202244656d6f207468726f756768206120636f6e7472616374227d000000000000000000000000000000000000000000000000000000000000",
          "blockHash": "0xcea586901c50000a45971f0bd5fc6298122ac4d267085c30b09d05127e10be66",
          "blockNumber": "0x7fb3cc",
          "transactionHash": "0xec3ee465727cdeb75ec156a6444d386b8ca37e6650e000d98b0a751417e50c54",
          "transactionIndex": "0x4",
          "logIndex": "0x5",
          "removed": false
        }
      ],
      "status": "0x1",
      "logsBloom": "0x00000000000000000000000000000000000000000000000000004000000000000000000000000000000000000000000000010000000000200000000000000000000010000000000000000000000000000000000000000000000000020000000000000000000000000000000000000000000000000000000000000000000000000000000000000000000008000000001000000800000000000000000000000000000000000000000000000000000000000000000000000000000000000000000000000000000000000000000000000000000000000000000000000000000000000000800000000000000000000000000100000100000000400000000000000000",
      "type": "0x2",
      "effectiveGasPrice": "0xb2d05fd7"
    }
  ],
  "libraries": [],
  "pending": [],
  "path": "/Users/hunterking/Desktop/ROM/rom-curr/RiteOfMoloch-v1.0/broadcast/ShamanProposal.s.sol/5/run-latest.json",
  "returns": {},
  "timestamp": 1674580681,
  "chain": 5,
  "multi": false,
  "commit": "9e6e3c8"
}