{
  "transactions": [
    {
      "hash": "0x068123423320c04823af09589926dee7c039690d563bd12ea9f682768197ee31",
      "transactionType": "CALL",
      "contractName": "Baal",
      "contractAddress": "0x6053dE194226843E4FD99A82C1386B4C76E19E34",
      "function": "submitProposal(bytes,uint32,uint256,string):(uint256)",
      "arguments": [
        "0x8d80ff0a00000000000000000000000000000000000000000000000000000000000000200000000000000000000000000000000000000000000000000000000000000232006053de194226843e4fd99a82c1386b4c76e19e34000000000000000000000000000000000000000000000000000000000000000000000000000000000000000000000000000000000000000000000000000000020f656a21000000000000000000000000000000000000000000000000000000000000004000000000000000000000000000000000000000000000000000000000000000800000000000000000000000000000000000000000000000000000000000000001000000000000000000000000a25256073cb38b8caf83b208949e7f746f3bebdc00000000000000000000000000000000000000000000000000000000000000010000000000000000000000000000000000000000000000000000000000000001006053de194226843e4fd99a82c1386b4c76e19e34000000000000000000000000000000000000000000000000000000000000000000000000000000000000000000000000000000000000000000000000000000020f656a2100000000000000000000000000000000000000000000000000000000000000400000000000000000000000000000000000000000000000000000000000000080000000000000000000000000000000000000000000000000000000000000000100000000000000000000000037c5b029f9c3691b3d47cb024f84e5e257aeb0bb000000000000000000000000000000000000000000000000000000000000000100000000000000000000000000000000000000000000000000000000000000020000000000000000000000000000",
        "0",
        "0",
        "{\"proposalType\": \"ADD_SHAMAN\", \"title\": \"ROM to Shaman\", \"description\": \"Demo through a contract\"}"
      ],
      "rpc": "https://eth-goerli.g.alchemy.com/v2/49Z_NgeD3j-WxnHQzifUkHA_IZUCKyrZ",
      "transaction": {
        "type": "0x02",
        "from": "0x1a4b691738c9c8db8f2edf0b9207f6acb24adf07",
        "to": "0x6053de194226843e4fd99a82c1386b4c76e19e34",
        "gas": "0x4d2fe",
        "value": "0x0",
        "data": "0x3a82ffc8000000000000000000000000000000000000000000000000000000000000008000000000000000000000000000000000000000000000000000000000000000000000000000000000000000000000000000000000000000000000000000000000000000000000000000000000000000000000000000000000000000000000034000000000000000000000000000000000000000000000000000000000000002848d80ff0a00000000000000000000000000000000000000000000000000000000000000200000000000000000000000000000000000000000000000000000000000000232006053de194226843e4fd99a82c1386b4c76e19e34000000000000000000000000000000000000000000000000000000000000000000000000000000000000000000000000000000000000000000000000000000020f656a21000000000000000000000000000000000000000000000000000000000000004000000000000000000000000000000000000000000000000000000000000000800000000000000000000000000000000000000000000000000000000000000001000000000000000000000000a25256073cb38b8caf83b208949e7f746f3bebdc00000000000000000000000000000000000000000000000000000000000000010000000000000000000000000000000000000000000000000000000000000001006053de194226843e4fd99a82c1386b4c76e19e34000000000000000000000000000000000000000000000000000000000000000000000000000000000000000000000000000000000000000000000000000000020f656a2100000000000000000000000000000000000000000000000000000000000000400000000000000000000000000000000000000000000000000000000000000080000000000000000000000000000000000000000000000000000000000000000100000000000000000000000037c5b029f9c3691b3d47cb024f84e5e257aeb0bb0000000000000000000000000000000000000000000000000000000000000001000000000000000000000000000000000000000000000000000000000000000200000000000000000000000000000000000000000000000000000000000000000000000000000000000000000000000000000000000000000000000000000000000000000000000000627b2270726f706f73616c54797065223a20224144445f5348414d414e222c20227469746c65223a2022524f4d20746f205368616d616e222c20226465736372697074696f6e223a202244656d6f207468726f756768206120636f6e7472616374227d000000000000000000000000000000000000000000000000000000000000",
        "nonce": "0x156",
        "accessList": []
      },
      "additionalContracts": []
    }
  ],
  "receipts": [
    {
      "transactionHash": "0x068123423320c04823af09589926dee7c039690d563bd12ea9f682768197ee31",
      "transactionIndex": "0x3",
      "blockHash": "0xd263e8fa1d9f8fe578d0174556a9cac7785ca9fd33b720dd143ee37d2b34de0a",
      "blockNumber": "0x7fb817",
      "from": "0x1A4B691738C9c8Db8f2EDf0b9207f6acb24ADF07",
      "to": "0x6053dE194226843E4FD99A82C1386B4C76E19E34",
      "cumulativeGasUsed": "0x5fc82",
      "gasUsed": "0x37e1e",
      "contractAddress": null,
      "logs": [
        {
          "address": "0x6053dE194226843E4FD99A82C1386B4C76E19E34",
          "topics": [
            "0xb9956173924f9c1204bae41dd3737d7ed1161846d13183879cdc03c4b9f8d019",
            "0x0000000000000000000000000000000000000000000000000000000000000007",
            "0xd7267b70e39b75fc80e4f13e5f9284037619f30fa6b58540a4f9f84914e202d5"
          ],
          "data": "0x000000000000000000000000000000000000000000000000000000000000007800000000000000000000000000000000000000000000000000000000000000e00000000000000000000000000000000000000000000000000000000000000000000000000000000000000000000000000000000000000000000000000000000000000000000000000000000000000000000000000000000000000000000000010000000000000000000000000000000000000000000000000000000063d04fd000000000000000000000000000000000000000000000000000000000000003a000000000000000000000000000000000000000000000000000000000000002848d80ff0a00000000000000000000000000000000000000000000000000000000000000200000000000000000000000000000000000000000000000000000000000000232006053de194226843e4fd99a82c1386b4c76e19e34000000000000000000000000000000000000000000000000000000000000000000000000000000000000000000000000000000000000000000000000000000020f656a21000000000000000000000000000000000000000000000000000000000000004000000000000000000000000000000000000000000000000000000000000000800000000000000000000000000000000000000000000000000000000000000001000000000000000000000000a25256073cb38b8caf83b208949e7f746f3bebdc00000000000000000000000000000000000000000000000000000000000000010000000000000000000000000000000000000000000000000000000000000001006053de194226843e4fd99a82c1386b4c76e19e34000000000000000000000000000000000000000000000000000000000000000000000000000000000000000000000000000000000000000000000000000000020f656a2100000000000000000000000000000000000000000000000000000000000000400000000000000000000000000000000000000000000000000000000000000080000000000000000000000000000000000000000000000000000000000000000100000000000000000000000037c5b029f9c3691b3d47cb024f84e5e257aeb0bb0000000000000000000000000000000000000000000000000000000000000001000000000000000000000000000000000000000000000000000000000000000200000000000000000000000000000000000000000000000000000000000000000000000000000000000000000000000000000000000000000000000000000000000000000000000000627b2270726f706f73616c54797065223a20224144445f5348414d414e222c20227469746c65223a2022524f4d20746f205368616d616e222c20226465736372697074696f6e223a202244656d6f207468726f756768206120636f6e7472616374227d000000000000000000000000000000000000000000000000000000000000",
          "blockHash": "0xd263e8fa1d9f8fe578d0174556a9cac7785ca9fd33b720dd143ee37d2b34de0a",
          "blockNumber": "0x7fb817",
          "transactionHash": "0x068123423320c04823af09589926dee7c039690d563bd12ea9f682768197ee31",
          "transactionIndex": "0x3",
          "logIndex": "0x3",
          "removed": false
        }
      ],
      "status": "0x1",
      "logsBloom": "0x00000000000000000000000000010000000000000000100000000000000000000000000000000000004000000000000000011000000000200000000000000000000021000000000000000000000000000000000000020000000000020000000000000000000000000000000000000000000000000000000000000000000000000000000000000000000000000000000000000000000000000000000000000000000000000000000000000000000000000000000000000080000000000000000000000000000000000000000000000000000000000000000000000100000000000000000000000000000000000000000000000000000000000000000000000000",
      "type": "0x2",
      "effectiveGasPrice": "0xb2d05e11"
    }
  ],
  "libraries": [],
  "pending": [],
  "path": "/Users/hunterking/Desktop/ROM/rom-curr/RiteOfMoloch-v1.0/broadcast/ShamanMultiProp.s.sol/5/run-latest.json",
  "returns": {},
  "timestamp": 1674596311,
  "chain": 5,
  "multi": false,
  "commit": "6b9b67c"
}