{
  "transactions": [
    {
      "hash": "0x8c4a104503c27473cfb941ed93b4bdb17934d75e2a10fbe07a3f7d66303e278c",
      "transactionType": "CALL",
      "contractName": "Baal",
      "contractAddress": "0x6053dE194226843E4FD99A82C1386B4C76E19E34",
      "function": "submitProposal(bytes,uint32,uint256,string):(uint256)",
      "arguments": [
        "0x8d80ff0a00000000000000000000000000000000000000000000000000000000000000200000000000000000000000000000000000000000000000000000000000000232006053de194226843e4fd99a82c1386b4c76e19e34000000000000000000000000000000000000000000000000000000000000000000000000000000000000000000000000000000000000000000000000000000c40f656a21000000000000000000000000000000000000000000000000000000000000004000000000000000000000000000000000000000000000000000000000000000800000000000000000000000000000000000000000000000000000000000000001000000000000000000000000000000000000000000000000000000000000011100000000000000000000000000000000000000000000000000000000000000010000000000000000000000000000000000000000000000000000000000000001006053de194226843e4fd99a82c1386b4c76e19e34000000000000000000000000000000000000000000000000000000000000000000000000000000000000000000000000000000000000000000000000000000c40f656a210000000000000000000000000000000000000000000000000000000000000040000000000000000000000000000000000000000000000000000000000000008000000000000000000000000000000000000000000000000000000000000000010000000000000000000000000000000000000000000000000000000000000222000000000000000000000000000000000000000000000000000000000000000100000000000000000000000000000000000000000000000000000000000000020000000000000000000000000000",
        "0",
        "0",
        "{\"proposalType\": \"ADD_SHAMAN\", \"title\": \"ROM to Shaman\", \"description\": \"Demo through a contract\"}"
      ],
      "rpc": "https://eth-goerli.g.alchemy.com/v2/49Z_NgeD3j-WxnHQzifUkHA_IZUCKyrZ",
      "transaction": {
        "type": "0x02",
        "from": "0x1a4b691738c9c8db8f2edf0b9207f6acb24adf07",
        "to": "0x6053de194226843e4fd99a82c1386b4c76e19e34",
        "gas": "0x4d0aa",
        "value": "0x0",
        "data": "0x3a82ffc8000000000000000000000000000000000000000000000000000000000000008000000000000000000000000000000000000000000000000000000000000000000000000000000000000000000000000000000000000000000000000000000000000000000000000000000000000000000000000000000000000000000000034000000000000000000000000000000000000000000000000000000000000002848d80ff0a00000000000000000000000000000000000000000000000000000000000000200000000000000000000000000000000000000000000000000000000000000232006053de194226843e4fd99a82c1386b4c76e19e34000000000000000000000000000000000000000000000000000000000000000000000000000000000000000000000000000000000000000000000000000000c40f656a21000000000000000000000000000000000000000000000000000000000000004000000000000000000000000000000000000000000000000000000000000000800000000000000000000000000000000000000000000000000000000000000001000000000000000000000000000000000000000000000000000000000000011100000000000000000000000000000000000000000000000000000000000000010000000000000000000000000000000000000000000000000000000000000001006053de194226843e4fd99a82c1386b4c76e19e34000000000000000000000000000000000000000000000000000000000000000000000000000000000000000000000000000000000000000000000000000000c40f656a2100000000000000000000000000000000000000000000000000000000000000400000000000000000000000000000000000000000000000000000000000000080000000000000000000000000000000000000000000000000000000000000000100000000000000000000000000000000000000000000000000000000000002220000000000000000000000000000000000000000000000000000000000000001000000000000000000000000000000000000000000000000000000000000000200000000000000000000000000000000000000000000000000000000000000000000000000000000000000000000000000000000000000000000000000000000000000000000000000627b2270726f706f73616c54797065223a20224144445f5348414d414e222c20227469746c65223a2022524f4d20746f205368616d616e222c20226465736372697074696f6e223a202244656d6f207468726f756768206120636f6e7472616374227d000000000000000000000000000000000000000000000000000000000000",
        "nonce": "0x17b",
        "accessList": []
      },
      "additionalContracts": []
    }
  ],
  "receipts": [
    {
      "transactionHash": "0x8c4a104503c27473cfb941ed93b4bdb17934d75e2a10fbe07a3f7d66303e278c",
      "transactionIndex": "0x2",
      "blockHash": "0xb639774bf3e648c0ebf57f347414f6c12057dc73beba00498127362340317026",
      "blockNumber": "0x8014c1",
      "from": "0x1A4B691738C9c8Db8f2EDf0b9207f6acb24ADF07",
      "to": "0x6053dE194226843E4FD99A82C1386B4C76E19E34",
      "cumulativeGasUsed": "0x4207e",
      "gasUsed": "0x37c6e",
      "contractAddress": null,
      "logs": [
        {
          "address": "0x6053dE194226843E4FD99A82C1386B4C76E19E34",
          "topics": [
            "0xb9956173924f9c1204bae41dd3737d7ed1161846d13183879cdc03c4b9f8d019",
            "0x0000000000000000000000000000000000000000000000000000000000000019",
            "0x237510e5f9437730d3c7799dc934e961c5660d0743e1fefa80453e3048edac04"
          ],
          "data": "0x000000000000000000000000000000000000000000000000000000000000007800000000000000000000000000000000000000000000000000000000000000e00000000000000000000000000000000000000000000000000000000000000000000000000000000000000000000000000000000000000000000000000000000000000000000000000000000000000000000000000000000000000000000000010000000000000000000000000000000000000000000000000000000063d5a2e400000000000000000000000000000000000000000000000000000000000003a000000000000000000000000000000000000000000000000000000000000002848d80ff0a00000000000000000000000000000000000000000000000000000000000000200000000000000000000000000000000000000000000000000000000000000232006053de194226843e4fd99a82c1386b4c76e19e34000000000000000000000000000000000000000000000000000000000000000000000000000000000000000000000000000000000000000000000000000000c40f656a21000000000000000000000000000000000000000000000000000000000000004000000000000000000000000000000000000000000000000000000000000000800000000000000000000000000000000000000000000000000000000000000001000000000000000000000000000000000000000000000000000000000000011100000000000000000000000000000000000000000000000000000000000000010000000000000000000000000000000000000000000000000000000000000001006053de194226843e4fd99a82c1386b4c76e19e34000000000000000000000000000000000000000000000000000000000000000000000000000000000000000000000000000000000000000000000000000000c40f656a2100000000000000000000000000000000000000000000000000000000000000400000000000000000000000000000000000000000000000000000000000000080000000000000000000000000000000000000000000000000000000000000000100000000000000000000000000000000000000000000000000000000000002220000000000000000000000000000000000000000000000000000000000000001000000000000000000000000000000000000000000000000000000000000000200000000000000000000000000000000000000000000000000000000000000000000000000000000000000000000000000000000000000000000000000000000000000000000000000627b2270726f706f73616c54797065223a20224144445f5348414d414e222c20227469746c65223a2022524f4d20746f205368616d616e222c20226465736372697074696f6e223a202244656d6f207468726f756768206120636f6e7472616374227d000000000000000000000000000000000000000000000000000000000000",
          "blockHash": "0xb639774bf3e648c0ebf57f347414f6c12057dc73beba00498127362340317026",
          "blockNumber": "0x8014c1",
          "transactionHash": "0x8c4a104503c27473cfb941ed93b4bdb17934d75e2a10fbe07a3f7d66303e278c",
          "transactionIndex": "0x2",
          "logIndex": "0x0",
          "removed": false
        }
      ],
      "status": "0x1",
      "logsBloom": "0x00000000000000000000000000010000000000200000000000000000000000000000000000000000004000000000000000010000000000a00000000000000000000001000008000000000000000000000000002000000000000000020000000000000000000000000000000000000000000000000000020000000000000000000000000000000000000000000000000000000000000000000000000000000000000000000000000000000000000000000000000000000000000000000000000000000000000000000000000000000000000000000000000000000000000000000000000000000000000000000000000000000000000000000000008000000000",
      "type": "0x2",
      "effectiveGasPrice": "0xb2d05e08"
    }
  ],
  "libraries": [],
  "pending": [],
  "path": "/Users/hunterking/Desktop/ROM/rom-curr/RiteOfMoloch-v1.0/broadcast/ShamanMultiProp.s.sol/5/run-latest.json",
  "returns": {},
  "timestamp": 1674945259,
  "chain": 5,
  "multi": false,
  "commit": "dcba2fe"
}