{
  "transactions": [
    {
      "hash": "0x6c8116787d5890005d1fc91297873ede0e382cf660a5a5532e5a073246d0c377",
      "transactionType": "CALL",
      "contractName": "Baal",
      "contractAddress": "0x6053dE194226843E4FD99A82C1386B4C76E19E34",
      "function": "submitProposal(bytes,uint32,uint256,string):(uint256)",
      "arguments": [
        "0x8d80ff0a00000000000000000000000000000000000000000000000000000000000000200000000000000000000000000000000000000000000000000000000000000119006053de194226843e4fd99a82c1386b4c76e19e34000000000000000000000000000000000000000000000000000000000000000000000000000000000000000000000000000000000000000000000000000000c40f656a210000000000000000000000000000000000000000000000000000000000000040000000000000000000000000000000000000000000000000000000000000008000000000000000000000000000000000000000000000000000000000000000010000000000000000000000003de5da236c66b8c6cf3d8b846615144eaba65ff90000000000000000000000000000000000000000000000000000000000000001000000000000000000000000000000000000000000000000000000000000000700000000000000",
        "0",
        "0",
        "{\"proposalType\": \"ADD_SHAMAN\", \"title\": \"ROM to Shaman\", \"description\": \"Demo through a contract\"}"
      ],
      "rpc": "https://eth-goerli.g.alchemy.com/v2/49Z_NgeD3j-WxnHQzifUkHA_IZUCKyrZ",
      "transaction": {
        "type": "0x02",
        "from": "0x1a4b691738c9c8db8f2edf0b9207f6acb24adf07",
        "to": "0x6053de194226843e4fd99a82c1386b4c76e19e34",
        "gas": "0x4b87c",
        "value": "0x0",
        "data": "0x3a82ffc8000000000000000000000000000000000000000000000000000000000000008000000000000000000000000000000000000000000000000000000000000000000000000000000000000000000000000000000000000000000000000000000000000000000000000000000000000000000000000000000000000000000000022000000000000000000000000000000000000000000000000000000000000001648d80ff0a00000000000000000000000000000000000000000000000000000000000000200000000000000000000000000000000000000000000000000000000000000119006053de194226843e4fd99a82c1386b4c76e19e34000000000000000000000000000000000000000000000000000000000000000000000000000000000000000000000000000000000000000000000000000000c40f656a210000000000000000000000000000000000000000000000000000000000000040000000000000000000000000000000000000000000000000000000000000008000000000000000000000000000000000000000000000000000000000000000010000000000000000000000003de5da236c66b8c6cf3d8b846615144eaba65ff900000000000000000000000000000000000000000000000000000000000000010000000000000000000000000000000000000000000000000000000000000007000000000000000000000000000000000000000000000000000000000000000000000000000000000000000000000000000000000000000000000000000000000000627b2270726f706f73616c54797065223a20224144445f5348414d414e222c20227469746c65223a2022524f4d20746f205368616d616e222c20226465736372697074696f6e223a202244656d6f207468726f756768206120636f6e7472616374227d000000000000000000000000000000000000000000000000000000000000",
        "nonce": "0x153",
        "accessList": []
      },
      "additionalContracts": []
    }
  ],
  "receipts": [],
  "libraries": [],
  "pending": [
    "0x6c8116787d5890005d1fc91297873ede0e382cf660a5a5532e5a073246d0c377"
  ],
  "path": "/Users/hunterking/Desktop/ROM/rom-curr/RiteOfMoloch-v1.0/broadcast/ShamanFullProp.s.sol/5/run-latest.json",
  "returns": {},
  "timestamp": 1674594852,
  "chain": 5,
  "multi": false,
  "commit": "6b9b67c"
}