{
  "transactions": [
    {
      "hash": "0xe4f905d35b502d7eeae9ca78ed1b4d7b723b174ae1f43dee9fde19102f3db010",
      "transactionType": "CALL",
      "contractName": "Baal",
      "contractAddress": "0x6c9110CBbCD400b768646729E5b400F0B5A6BCC7",
      "function": "submitProposal(bytes,uint32,uint256,string):(uint256)",
      "arguments": [
        "0x8d80ff0a00000000000000000000000000000000000000000000000000000000000000200000000000000000000000000000000000000000000000000000000000000132006c9110cbbcd400b768646729e5b400f0b5a6bcc7000000000000000000000000000000000000000000000000000000000000000000000000000000000000000000000000000000000000000000000000000000440f656a210000000000000000000000005b73c5498c1e3b4dba84de0f1833c4a029d905190000000000000000000000000000000000000000000000000000000000000002006c9110cbbcd400b768646729e5b400f0b5a6bcc7000000000000000000000000000000000000000000000000000000000000000000000000000000000000000000000000000000000000000000000000000000440f656a210000000000000000000000001a4b691738c9c8db8f2edf0b9207f6acb24adf0700000000000000000000000000000000000000000000000000000000000000070000000000000000000000000000",
        "0",
        "0",
        "{\"proposalType\": \"ADD_SHAMAN\", \"title\": \"ROM to Shaman\", \"description\": \"Demo through a contract\"}"
      ],
      "rpc": "https://eth-goerli.g.alchemy.com/v2/49Z_NgeD3j-WxnHQzifUkHA_IZUCKyrZ",
      "transaction": {
        "type": "0x02",
        "from": "0x1a4b691738c9c8db8f2edf0b9207f6acb24adf07",
        "to": "0x6c9110cbbcd400b768646729e5b400f0b5a6bcc7",
        "gas": "0x4bd88",
        "value": "0x0",
        "data": "0x3a82ffc8000000000000000000000000000000000000000000000000000000000000008000000000000000000000000000000000000000000000000000000000000000000000000000000000000000000000000000000000000000000000000000000000000000000000000000000000000000000000000000000000000000000000024000000000000000000000000000000000000000000000000000000000000001848d80ff0a00000000000000000000000000000000000000000000000000000000000000200000000000000000000000000000000000000000000000000000000000000132006c9110cbbcd400b768646729e5b400f0b5a6bcc7000000000000000000000000000000000000000000000000000000000000000000000000000000000000000000000000000000000000000000000000000000440f656a210000000000000000000000005b73c5498c1e3b4dba84de0f1833c4a029d905190000000000000000000000000000000000000000000000000000000000000002006c9110cbbcd400b768646729e5b400f0b5a6bcc7000000000000000000000000000000000000000000000000000000000000000000000000000000000000000000000000000000000000000000000000000000440f656a210000000000000000000000001a4b691738c9c8db8f2edf0b9207f6acb24adf07000000000000000000000000000000000000000000000000000000000000000700000000000000000000000000000000000000000000000000000000000000000000000000000000000000000000000000000000000000000000000000000000000000000000000000627b2270726f706f73616c54797065223a20224144445f5348414d414e222c20227469746c65223a2022524f4d20746f205368616d616e222c20226465736372697074696f6e223a202244656d6f207468726f756768206120636f6e7472616374227d000000000000000000000000000000000000000000000000000000000000",
        "nonce": "0x147",
        "accessList": []
      },
      "additionalContracts": []
    }
  ],
  "receipts": [
    {
      "transactionHash": "0xe4f905d35b502d7eeae9ca78ed1b4d7b723b174ae1f43dee9fde19102f3db010",
      "transactionIndex": "0x2",
      "blockHash": "0x4e63f5d7a28575d03022619ef18d891259875bcb331f091a050521f7dac71f1e",
      "blockNumber": "0x7fb699",
      "from": "0x1A4B691738C9c8Db8f2EDf0b9207f6acb24ADF07",
      "to": "0x6c9110CBbCD400b768646729E5b400F0B5A6BCC7",
      "cumulativeGasUsed": "0x4a114",
      "gasUsed": "0x36e94",
      "contractAddress": null,
      "logs": [
        {
          "address": "0x6c9110CBbCD400b768646729E5b400F0B5A6BCC7",
          "topics": [
            "0xb9956173924f9c1204bae41dd3737d7ed1161846d13183879cdc03c4b9f8d019",
            "0x000000000000000000000000000000000000000000000000000000000000000b",
            "0x7df8ca91e8b6d2c2881429b7c5a5935af2f2d193852233451d2b816e3402fc63"
          ],
          "data": "0x00000000000000000000000000000000000000000000000000000000000004b000000000000000000000000000000000000000000000000000000000000000e00000000000000000000000000000000000000000000000000000000000000000000000000000000000000000000000000000000000000000000000000000000000000000000000000000000000000000000000000000000000000000000000010000000000000000000000000000000000000000000000000000000063d03a6400000000000000000000000000000000000000000000000000000000000002a000000000000000000000000000000000000000000000000000000000000001848d80ff0a00000000000000000000000000000000000000000000000000000000000000200000000000000000000000000000000000000000000000000000000000000132006c9110cbbcd400b768646729e5b400f0b5a6bcc7000000000000000000000000000000000000000000000000000000000000000000000000000000000000000000000000000000000000000000000000000000440f656a210000000000000000000000005b73c5498c1e3b4dba84de0f1833c4a029d905190000000000000000000000000000000000000000000000000000000000000002006c9110cbbcd400b768646729e5b400f0b5a6bcc7000000000000000000000000000000000000000000000000000000000000000000000000000000000000000000000000000000000000000000000000000000440f656a210000000000000000000000001a4b691738c9c8db8f2edf0b9207f6acb24adf07000000000000000000000000000000000000000000000000000000000000000700000000000000000000000000000000000000000000000000000000000000000000000000000000000000000000000000000000000000000000000000000000000000000000000000627b2270726f706f73616c54797065223a20224144445f5348414d414e222c20227469746c65223a2022524f4d20746f205368616d616e222c20226465736372697074696f6e223a202244656d6f207468726f756768206120636f6e7472616374227d000000000000000000000000000000000000000000000000000000000000",
          "blockHash": "0x4e63f5d7a28575d03022619ef18d891259875bcb331f091a050521f7dac71f1e",
          "blockNumber": "0x7fb699",
          "transactionHash": "0xe4f905d35b502d7eeae9ca78ed1b4d7b723b174ae1f43dee9fde19102f3db010",
          "transactionIndex": "0x2",
          "logIndex": "0x0",
          "removed": false
        }
      ],
      "status": "0x1",
      "logsBloom": "0x00000000000000000000004000000000000000000000000000004000000000000000000000000000000000000000000000010000000000200000000000000000000000000000000000000000000000000000000000000000000000020000000000000000000000000100000000000000000000000000000000000000000000000000000000000000000000000000000000000000000000000000000000000000000000000000000000000000000000000000000000000000000000000000040000000000000000000000000000000000002000000000000000000000000000000000c00000000000000000000000000000000100000000040000000000000000",
      "type": "0x2",
      "effectiveGasPrice": "0xb2d05e29"
    }
  ],
  "libraries": [],
  "pending": [],
  "path": "/Users/hunterking/Desktop/ROM/rom-curr/RiteOfMoloch-v1.0/broadcast/ShamanFullProp.s.sol/5/run-latest.json",
  "returns": {},
  "timestamp": 1674590826,
  "chain": 5,
  "multi": false,
  "commit": "6b9b67c"
}