{
  "transactions": [
    {
      "hash": "0xf71e69a5931bfd3f346fc4fbe42e8d5361f86bbc0312d4fb976b46afc5ac49ae",
      "transactionType": "CALL",
      "contractName": "RiteOfMolochFactory",
      "contractAddress": "0xdaE97900D4B184c5D2012dcdB658c008966466DD",
      "function": "createCohort((address,address,address,address,address,uint256,uint256,uint256,uint256,uint256,uint256,string,string,string,string,bool),uint256):(address)",
      "arguments": [
        "(0x6053dE194226843E4FD99A82C1386B4C76E19E34, 0xA49dF10dD5B84257dE634F4350218f615471Fc69, 0x473472560B4bce45249B045699dd45d761ed300d, 0xa25256073cB38b8CAF83b208949E7f746f3BEBDc, 0x0000000000000000000000000000000000000000, 5, 864000, 10, 2500000000000000000000, 864000, 0, SeasonV, RiteOfMolochSBT, SBTMoloch, , false)",
        "1"
      ],
      "rpc": "https://eth-goerli.g.alchemy.com/v2/49Z_NgeD3j-WxnHQzifUkHA_IZUCKyrZ",
      "transaction": {
        "type": "0x02",
        "from": "0x1a4b691738c9c8db8f2edf0b9207f6acb24adf07",
        "to": "0xdae97900d4b184c5d2012dcdb658c008966466dd",
        "gas": "0x8bb8",
        "value": "0x0",
        "data": "0xfd529b69000000000000000000000000000000000000000000000000000000000000004000000000000000000000000000000000000000000000000000000000000000010000000000000000000000006053de194226843e4fd99a82c1386b4c76e19e34000000000000000000000000a49df10dd5b84257de634f4350218f615471fc69000000000000000000000000473472560b4bce45249b045699dd45d761ed300d000000000000000000000000a25256073cb38b8caf83b208949e7f746f3bebdc0000000000000000000000000000000000000000000000000000000000000000000000000000000000000000000000000000000000000000000000000000000500000000000000000000000000000000000000000000000000000000000d2f00000000000000000000000000000000000000000000000000000000000000000a0000000000000000000000000000000000000000000000878678326eac90000000000000000000000000000000000000000000000000000000000000000d2f00000000000000000000000000000000000000000000000000000000000000000000000000000000000000000000000000000000000000000000000000000002000000000000000000000000000000000000000000000000000000000000000240000000000000000000000000000000000000000000000000000000000000028000000000000000000000000000000000000000000000000000000000000002c000000000000000000000000000000000000000000000000000000000000000000000000000000000000000000000000000000000000000000000000000000007536561736f6e5600000000000000000000000000000000000000000000000000000000000000000000000000000000000000000000000000000000000000000f526974654f664d6f6c6f6368534254000000000000000000000000000000000000000000000000000000000000000000000000000000000000000000000000095342544d6f6c6f636800000000000000000000000000000000000000000000000000000000000000000000000000000000000000000000000000000000000000",
        "nonce": "0x1f5",
        "accessList": []
      },
      "additionalContracts": []
    },
    {
      "hash": "0x1b9a0459f14c4c9b8a8fb1bf735aabf0d38c172b3b59af76786b3b7f140c0c2d",
      "transactionType": "CALL",
      "contractName": "FuturoToken",
      "contractAddress": "0xA49dF10dD5B84257dE634F4350218f615471Fc69",
      "function": "approve(address,uint256)",
      "arguments": [
        "0xB5A92EB54CD44C87875Ec8d4e166708ec6CCa61F",
        "2500000000000000000000"
      ],
      "rpc": "https://eth-goerli.g.alchemy.com/v2/49Z_NgeD3j-WxnHQzifUkHA_IZUCKyrZ",
      "transaction": {
        "type": "0x02",
        "from": "0x1a4b691738c9c8db8f2edf0b9207f6acb24adf07",
        "to": "0xa49df10dd5b84257de634f4350218f615471fc69",
        "gas": "0x8e4a",
        "value": "0x0",
        "data": "0x095ea7b3000000000000000000000000b5a92eb54cd44c87875ec8d4e166708ec6cca61f0000000000000000000000000000000000000000000000878678326eac900000",
        "nonce": "0x1f6",
        "accessList": []
      },
      "additionalContracts": []
    },
    {
      "hash": "0x5c599b5dd35be61296b31de799b502c0d857cab0290463a179a733f8daa3dbda",
      "transactionType": "CALL",
      "contractName": null,
      "contractAddress": "0xB5A92EB54CD44C87875Ec8d4e166708ec6CCa61F",
      "function": "joinInitiation(address)",
      "arguments": [
        "0x1A4B691738C9c8Db8f2EDf0b9207f6acb24ADF07"
      ],
      "rpc": "https://eth-goerli.g.alchemy.com/v2/49Z_NgeD3j-WxnHQzifUkHA_IZUCKyrZ",
      "transaction": {
        "type": "0x02",
        "from": "0x1a4b691738c9c8db8f2edf0b9207f6acb24adf07",
        "to": "0xb5a92eb54cd44c87875ec8d4e166708ec6cca61f",
        "gas": "0x73a2",
        "value": "0x0",
        "data": "0xc733d5e90000000000000000000000001a4b691738c9c8db8f2edf0b9207f6acb24adf07",
        "nonce": "0x1f7",
        "accessList": []
      },
      "additionalContracts": []
    }
  ],
  "receipts": [],
  "libraries": [],
  "pending": [
    "0xf71e69a5931bfd3f346fc4fbe42e8d5361f86bbc0312d4fb976b46afc5ac49ae",
    "0x1b9a0459f14c4c9b8a8fb1bf735aabf0d38c172b3b59af76786b3b7f140c0c2d",
    "0x5c599b5dd35be61296b31de799b502c0d857cab0290463a179a733f8daa3dbda"
  ],
  "path": "/Users/hunterking/Desktop/ROM/rom-curr/RiteOfMoloch-v1.0/broadcast/CohortUser.s.sol/5/run-latest.json",
  "returns": {},
  "timestamp": 1675799622,
  "chain": 5,
  "multi": false,
  "commit": "f91ab14"
}